S01A0000466168727261647761736368616E6C6167652E73726563D4
S11300007EC000009CC000009AC0000098C00000A0
S113001096C0000094C0000092C0000090C0000090
S11300208EC000008CC000008AC0000088C00000A0
S113003086C0000084C0000082C0000080C00000B0
S11300407EC000007CC000007AC0000078C00000C0
S113005076C0000074C0000072C000000C94A80FA9
S11300606EC000006CC000006AC0000068C00000E0
S113007066C0000064C0000062C0000060C00000F0
S11300805EC000005CC000005AC0000058C0000000
S113009056C0000054C0000052C0000050C0000010
S11300A04EC000004CC000004AC0000048C0000020
S11300B046C0000044C0000042C0000040C0000030
S11300C03EC000003CC000003AC0000038C0000040
S11300D036C0000034C0000032C0000030C0000050
S11300E02EC00000C601E9011302BE02E409EC0AB5
S11300F05904E7045C059506A307B0089709112481
S11301001FBECFEFD1E2DEBFCDBF00E00CBF14E0D5
S1130110A0E0B2E0E6EDF6E200E00BBF02C007901B
S11301200D92AC3AB107D9F725E0ACEAB4E001C0CE
S11301301D92AA32B207E1F703D00C94691360CF81
S1130140CF93DF93CDB7DEB7C757D1090FB6F89475
S1130150DEBF0FBECDBF80E00E94420E84E2E0E02D
S1130160F2E0DE01119601900D928A95E1F788E0A4
S1130170E4E2F2E0DE01959601900D928A95E1F7B2
S11301808AE0ECE2F2E0DE019D9601900D928A9500
S1130190E1F768961FAE6897812C67961FAE679744
S11301A011E027961FAE279726961FAE2697A9968D
S11301B01FAEA997AA961FAEAA97AB961FAEAB9790
S11301C0AC961FAEAC97AD961FAEAD97AE961FAE74
S11301D0AE97AF961FAEAF97E0961FAEE097A1968D
S11301E01FAEA197A2961FAEA297A3961FAEA39788
S11301F0A4961FAEA497A5961FAEA597A6961FAE6C
S1130200A697A7961FAEA797A8961FAEA89769961C
S11302101FAE69976A961FAE6A976B961FAE6B976F
S11302206C961FAE6C976D961FAE6D976E961FAE53
S11302306E976F961FAE6F97A0961FAEA097E1962C
S11302401FAEE197E2961FAEE297E3961FAEE397E7
S1130250E4961FAEE497E5961FAEE597E6961FAECB
S1130260E697E7961FAEE797E8961FAEE8972F96B6
S11302701FAE2F9760961FAE609761961FAE619771
S113028062961FAE629763961FAE639764961FAE25
S1130290649765961FAE659766961FAE669722248F
S11302A02394922C512E86B14CB0982F9078292EFD
S11302B0312C282F21702FAB18AE982F9270292F34
S11302C030E023963FAF2EAF23978470282F30E081
S11302D025963FAF2EAF25970E94BA0B29AF3AAFB0
S11302E04BAF5CAF6DAF7EAF8FAF21969FAF2197C1
S11302F0882D842584218470682E712C8AE00E94C4
S1130300E00B8BE00E94E00B8C018C32914080F476
S113031027968FAD279781110BC092E0951540F079
S113032067965FAE6797539421E027962FAF279780
S11303300D3B32E0130780F026968FAD269781118E
S11303400BC091E0951540F467965FAE67975A9499
S113035021E026962FAF2697C80181599140833614
S1130360910530F427961FAE279726961FAE269741
S1130370892D90E08D30910510F00C94920BFC01C6
S11303808827EE58FF4F8F4F0C94F40F1214130468
S113039014F49924939404E612E01F930F931F928C
S11303A081E08F930E94CF0C1F930F931F9282E0E2
S11303B08F930E94CF0C1F930F931F9283E08F9310
S11303C00E94CF0C0FB6F894DEBF0FBECDBF0C94C5
S11303D0920B121413040CF0912C2FA938AD1216A1
S11303E013061CF46894992491F804E612E01F9310
S11303F00F931F9281E08F930E94CF0C1F930F9352
S11304001F9282E08F930E94CF0C1F930F931F9231
S113041083E08F930E94CF0C0FB6F894DEBF0FBE1B
S1130420CDBF0C94920B2FA938AD1216130614F0FD
S113043099249394121413040CF0912C8BE992E0F8
S11304409F938F931DE01F935F920E94CF0C87E7C9
S113045092E09F938F931F9367963FAD67973F9367
S11304600E94CF0C0FB6F894DEBF0FBECDBF23960B
S11304702EAD3FAD23971216130674F48EE392E06B
S11304809F938F931F9282E08F930E94CF0C0F90C3
S11304900F900F900F900DC08BE692E09F938F9377
S11304A01F9282E08F930E94CF0C0F900F900F90B9
S11304B00F908CE492E09F938F931F9281E08F932F
S11304C00E94CF0C84E692E09F938F931F9283E067
S11304D08F930E94CF0C0FB6F894DEBF0FBECDBF32
S11304E0161417041CF592E0591220C00AE512E014
S11304F01F930F931F9281E08F930E94CF0C1F9341
S11305000F931F9282E08F930E94CF0C1F930F933F
S11305101F9283E08F930E94CF0C0FB6F894DEBF36
S11305200FBECDBF0F2EF3E09F2EF02D161417042F
S113053014F00C947A0B31E053120C947E0B84E685
S113054092E09F938F931F9281E08F930E94CF0C30
S11305508AE592E09F938F931F9282E08F930E948B
S1130560CF0C0FB6F894DEBF0FBECDBF68961FAE9A
S113057068976894992492F80C94920B23962EAD64
S11305803FAD2397121613061CF06894992491F832
S11305908FA998AD1816190614F09924939412147F
S11305A013040CF0912C68969FAD6897E92EF12CFA
S11305B0F701EE0FFF1F21E030E02C0F3D1FE20F8B
S11305C0F31F84A195A19F938F931F9281E08F9332
S11305D00E94CF0CF7013196EE0FFF1F81E090E0EF
S11305E08C0F9D1FE80FF91F84A195A19F938F93F2
S11305F01F9282E08F930E94CF0CF7013296EE0F88
S1130600FF1F21E030E02C0F3D1FE20FF31F84A1F8
S113061095A19F938F931F9283E08F930E94CF0C99
S11306208BE992E09F938F930F2EF9E0FF2EF02D2C
S1130630FF925F920E94CF0C87E792E09F938F9383
S1130640FF9267963FAD67973F930E94CF0C0FB61A
S1130650F894DEBF0FBECDBF93E0591212C00C3226
S113066021E0120770F468963FAD6897311109C014
S113067027968FAD2797811104C03F5F68963FAFDF
S1130680689791E0591211C00D3B124070F06896C2
S11306903FAD6897332349F026968FAD2697811195
S11306A004C0315068963FAF689793E0591227C051
S11306B01614170424F568962FAD68972223F9F0D1
S11306C00AE512E01F930F931F9281E08F930E941B
S11306D0CF0C1F930F931F9282E08F930E94CF0C35
S11306E01F930F931F9283E08F930E94CF0C0FB63A
S11306F0F894DEBF0FBECDBF6894992491F891E0C1
S1130700591228C0161417042CF568962FAD689753
S1130710211120C00AE512E01F930F931F9281E07C
S11307208F930E94CF0C1F930F931F9282E08F939D
S11307300E94CF0C1F930F931F9283E08F930E940C
S1130740CF0C0FB6F894DEBF0FBECDBF0F2EF5E071
S11307509F2EF02D92E0591228C0161417042CF580
S113076068962FAD6897211120C00AE512E01F9307
S11307700F931F9281E08F930E94CF0C1F930F93CE
S11307801F9282E08F930E94CF0C1F930F931F92AE
S113079083E08F930E94CF0C0FB6F894DEBF0FBE98
S11307A0CDBF0F2EF6E09F2EF02D91E0591228C0F8
S11307B0161417042CF568962FAD6897222301F1BF
S11307C00AE512E01F930F931F9281E08F930E941A
S11307D0CF0C1F930F931F9282E08F930E94CF0C34
S11307E01F930F931F9283E08F930E94CF0C0FB639
S11307F0F894DEBF0FBECDBF0F2EF6E09F2EF02D76
S113080093E0591228C0161417042CF568962FADDE
S11308106897211120C00AE512E01F930F931F92DD
S113082081E08F930E94CF0C1F930F931F9282E05D
S11308308F930E94CF0C1F930F931F9283E08F938B
S11308400E94CF0C0FB6F894DEBF0FBECDBF0F2EA3
S1130850F7E09F2EF02D92E0591264C71614170486
S11308600CF060C768962FAD6897222309F45AC725
S11308700AE512E01F930F931F9281E08F930E9469
S1130880CF0C1F930F931F9282E08F930E94CF0C83
S11308901F930F931F9283E08F930E94CF0C0FB688
S11308A0F894DEBF0FBECDBF0F2EF7E09F2EF02DC4
S11308B039C799AD2F969FAF2F972AAD60962FAF6A
S11308C060973BAD61963FAF61978CAD62968FAFF9
S11308D062979DAD63969FAF63972EAD64962FAFDD
S11308E064973FAD65963FAF659721968FAD21978D
S11308F066968FAF669790EEA9969FAFA9972EE262
S1130900AA962FAFAA97AB961FAEAB97AC961FAE25
S1130910AC97AD961FAEAD97AE961FAEAE97AF96A1
S11309201FAEAF97E0961FAEE09738E9A1963FAFB0
S1130930A1978AE3A2968FAFA297A3961FAEA3971F
S1130940A4961FAEA497A5961FAEA597A6961FAE14
S1130950A697A7961FAEA797A8961FAEA89790E351
S113096069969FAF699725E76A962FAF6A976B964A
S11309701FAE6B976C961FAE6C976D961FAE6D97FE
S11309806E961FAE6E976F961FAE6F97A0961FAEB2
S1130990A09730E1E1963FAFE19787E2E2968FAF0F
S11309A0E297E3961FAEE397E4961FAEE497E596CD
S11309B01FAEE597E6961FAEE697E7961FAEE7975C
S11309C0E8961FAEE8976894992493F8ABC699AD5E
S11309D02F969FAF2F972AAD60962FAF60973BADB0
S11309E061963FAF61978CAD62968FAF62979DAD74
S11309F063969FAF63972EAD64962FAF64973FAD18
S1130A0065963FAF659721968FAD219766968FAF18
S1130A10669798E8A9969FAFA99723E1AA962FAF66
S1130A20AA97AB961FAEAB97AC961FAEAC97AD969C
S1130A301FAEAD97AE961FAEAE97AF961FAEAF97F3
S1130A40E0961FAEE09738E8A1963FAFA19783E107
S1130A50A2968FAFA297A3961FAEA397A4961FAE9C
S1130A60A497A5961FAEA597A6961FAEA697A79680
S1130A701FAEA797A8961FAEA89790E169969FAF5F
S1130A80699727E26A962FAF6A976B961FAE6B97AA
S1130A906C961FAE6C976D961FAE6D976E961FAEDB
S1130AA06E976F961FAE6F97A0961FAEA0970F2EEE
S1130AB0F9E09F2EF02D36C62F962FAD2F97609616
S1130AC03FAD609761964FAD619762965FAD629757
S1130AD063966FAD639764967FAD649765968FADAB
S1130AE0659766969FAD6697A9ACBAACCBACDCAC07
S1130AF0EDACFEAC0FAD21961FAD21970E946F1097
S1130B00A22EB32EC42ED52EE62EF72E082F192F83
S1130B10E1962FADE197E2963FADE297E3964FADB4
S1130B20E397E4965FADE497E5966FADE597E696B7
S1130B307FADE697E7968FADE797E8969FADE89788
S1130B400E945A1028962FAF289729963FAF2997CD
S1130B502A964FAF2A972B965FAF2B972C966FAFA1
S1130B602C972D967FAF2D97882E2E969FAF2E977C
S1130B700F2EF8EEAF2EF02D0F2EF3E0BF2EF02D3A
S1130B80C12CD12CE12CF12C00E010E00E94FE0FCE
S1130B90A1E00E946310A12C6894CC24C1F8E22E39
S1130BA0F32E042F152F262F372F482F592F60E0AF
S1130BB081E02FD789E792E09F938F9382E08F9310
S1130BC081E08F93ECD628962FAD289729963FADD8
S1130BD029972A964FAD2A972B965FAD2B972C9683
S1130BE06FAD2C972D967FAD2D97882D2E969FADAA
S1130BF02E97AFEF0E9463100F900F900F900F90FD
S1130C00A8E00E94781009F030F539AD2F963FAF77
S1130C102F978AAD60968FAF60979BAD61969FAF1B
S1130C2061972CAD62962FAF62973DAD63963FAF4F
S1130C3063978EAD64968FAF64979FAD65969FAFB3
S1130C40659721962FAD219766962FAF66970F2E45
S1130C50F9E09F2EF02D121413040CF0912C91E066
S1130C6023962EAD3FAD2397121613060CF490E095
S1130C7081E025962EAD3FAD2597121613060CF490
S1130C8080E0892BB1F00AE512E01F930F931F92C5
S1130C901F9285D61F930F931F9281E08F937FD667
S1130CA00FB6F894DEBF0FBECDBF0F2EFCE09F2E13
S1130CB0F02D8BE792E09F938F931F9283E08F93A5
S1130CC06ED60F900F900F900F901614170434F4F3
S1130CD093E0591203C06894992491F88BE992E047
S1130CE09F938F931AE01F935F9259D687E792E000
S1130CF09F938F931F9367962FAD67972F934FD62C
S1130D0086E892E09F938F931F9282E08F9347D659
S1130D100FB6F894DEBF0FBECDBF92E0591202C5E4
S1130D20161417040CF4EEC4FDC42F962FAD2F97A0
S1130D3060963FAD609761964FAD619762965FADE7
S1130D40629763966FAD639764967FAD649765967B
S1130D508FAD659766969FAD6697A9ACBAACCBACE0
S1130D60DCACEDACFEAC0FAD21961FAD21970E941B
S1130D706F10A22EB32EC42ED52EE62EF72E082FDA
S1130D80192F69962FAD69976A963FAD6A976B964E
S1130D904FAD6B976C965FAD6C976D966FAD6D971D
S1130DA06E967FAD6E976F968FAD6F97A0969FAD41
S1130DB0A0970E945A1028962FAF289729963FAFE4
S1130DC029972A964FAF2A972B965FAF2B972C968D
S1130DD06FAF2C972D967FAF2D97882E2E969FAFB1
S1130DE02E970F2EF8EEAF2EF02D0F2EF3E0BF2E20
S1130DF0F02DC12CD12CE12CF12C00E010E00E944C
S1130E00FE0FA1E00E946310A12C6894CC24C1F8C9
S1130E10E22EF32E042F152F262F372F482F592F6C
S1130E2060E081E0F6D589E792E09F938F9382E0BA
S1130E308F9381E08F93B3D528962FAD2897299669
S1130E403FAD29972A964FAD2A972B965FAD2B97E6
S1130E502C966FAD2C972D967FAD2D97882D2E96C1
S1130E609FAD2E97AFEF0E9463100F900F900F90DD
S1130E700F90A8E00E94781009F030F529AD2F9664
S1130E802FAF2F973AAD60963FAF60978BAD6196C9
S1130E908FAF61979CAD62969FAF62972DAD6396BD
S1130EA02FAF63973EAD64963FAF64978FAD659661
S1130EB08FAF659721969FAD219766969FAF6697F2
S1130EC00F2EFAE09F2EF02D121413040CF0912C27
S1130ED091E023962EAD3FAD2397121613060CF422
S1130EE090E081E025962EAD3FAD259712161306AE
S1130EF00CF480E0892BB1F00AE512E01F930F9304
S1130F001F921F924CD51F930F931F9281E08F93D2
S1130F1046D50FB6F894DEBF0FBECDBF0F2EFCE052
S1130F209F2EF02D81E992E09F938F931F9283E08F
S1130F308F9335D50F900F900F900F9016141704C0
S1130F400CF4E5C3EFC32F962FAD2F9760963FADFA
S1130F50609761964FAD619762965FAD62976396B5
S1130F606FAD639764967FAD649765968FAD659713
S1130F7066969FAD6697A9ACBAACCBACDCACEDACD5
S1130F80FEAC0FAD21961FAD21970E946F10A22ECB
S1130F90B32EC42ED52EE62EF72E082F192FA19688
S1130FA02FADA197A2963FADA297A3964FADA3975D
S1130FB0A4965FADA497A5966FADA597A6967FADB1
S1130FC0A697A7968FADA797A8969FADA8970E94BE
S1130FD05A1028962FAF289729963FAF29972A961B
S1130FE04FAF2A972B965FAF2B972C966FAF2C970A
S1130FF02D967FAF2D97882E2E969FAF2E970F2E6E
S1131000F8EEAF2EF02D0F2EF3E0BF2EF02DC12CF5
S1131010D12CE12CF12C00E010E0F0D7A1E00E94EB
S11310206310A12C6894CC24C1F8E22EF32E042F73
S1131030152F262F372F482F592F60E081E0E9D450
S113104089E792E09F938F9382E08F9381E08F935F
S1131050A6D428962FAD289729963FAD29972A968E
S11310604FAD2A972B965FAD2B972C966FAD2C978F
S11310702D967FAD2D97882D2E969FAD2E97AFEF91
S11310800E9463100F900F900F900F90A8E00E94A1
S1131090781009F030F599AD2F969FAF2F972AADB0
S11310A060962FAF60973BAD61963FAF61978CAD73
S11310B062968FAF62979DAD63969FAF63972EAD97
S11310C064962FAF64973FAD65963FAF65972196C1
S11310D08FAD219766968FAF66970F2EFBE09F2EFC
S11310E0F02D121413040CF0912C91E023962EADE4
S11310F03FAD2397121613060CF490E081E0259679
S11311002EAD3FAD2597121613060CF480E0892B03
S1131110B1F00AE512E01F930F931F921F923FD480
S11311201F930F931F9281E08F9339D40FB6F894D5
S1131130DEBF0FBECDBF0F2EFCE09F2EF02D81E948
S113114092E09F938F931F9283E08F9328D40F9004
S11311500F900F900F90161417040CF4DCC2E2C227
S11311602F962FAD2F9760963FAD609761964FAD48
S1131170619762965FAD629763966FAD639764966D
S11311807FAD649765968FAD659766969FAD6697BC
S1131190A9ACBAACCBACDCACEDACFEAC0FAD2196DB
S11311A01FAD21979CD7A22EB32EC42ED52EE62E8A
S11311B0F72E082F192FA9962FADA997AA963FAD00
S11311C0AA97AB964FADAB97AC965FADAC97AD9687
S11311D06FADAD97AE967FADAE97AF968FADAF972F
S11311E0E0969FADE09766D729AF3AAF4BAF5CAFBF
S11311F06DAF7EAF882E9FAF0F2EF8EEAF2EF02D81
S11312000F2EF3E0BF2EF02DC12CD12CE12CF12CAC
S113121000E010E0F3D6A1E056D7A12C6894CC24CA
S1131220C1F8E22EF32E042F152F262F372F482F27
S1131230592F60E081E0EDD389E792E09F938F938B
S113124082E08F9381E08F93AAD329AD3AAD4BAD61
S11312505CAD6DAD7EAD882D9FADAFEF34D70F90F3
S11312600F900F900F90A8E043D709F008F50AE516
S113127012E01F930F931F9281E08F9390D31F93DB
S11312800F931F9282E08F938AD31F930F931F9221
S113129083E08F9384D31F930F931F921F927FD366
S11312A00FB6F894DEBF0FBECDBF6894992491F8B1
S11312B0121413040CF0912C91E023962EAD3FAD43
S11312C02397121613060CF490E081E025962EADB8
S11312D03FAD2597121613060CF480E0892BB1F06C
S11312E00AE512E01F930F931F921F9258D31F9386
S11312F00F931F9281E08F9352D30FB6F894DEBF01
S11313000FBECDBF0F2EFCE09F2EF02D81E992E0A1
S11313109F938F931F9283E08F9341D30F900F90ED
S11313200F900F90161417040CF4F9C1FBC18DE94A
S113133092E09F938F931F9283E08F9330D30F900B
S11313400F900F900F9023962EAD3FAD239712165A
S1131350130664F087EB92E09F938F931F9281E0D2
S11313608F931DD30F900F900F900F9025968EADF5
S11313709FAD25971816190664F08BEC92E09F93A5
S11313808F931F9282E08F930AD30F900F900F9048
S11313900F90161417040CF0C5C10AE512E01F9350
S11313A00F931F9281E08F93FAD21F930F931F9292
S11313B082E08F93F4D20FB6F894DEBF0FBECDBF98
S11313C06894992491F8AEC168963FAD6897E32E6E
S11313D0F12CF701EE0FFF1F81E090E08C0F9D1FB1
S11313E0E80FF91F84A595A59F938F931F9281E021
S11313F08F93D5D2F7013196EE0FFF1F21E030E035
S11314002C0F3D1FE20FF31F84A595A59F938F9387
S11314101F9282E08F93C3D2F7013296EE0FFF1F23
S113142081E090E08C0F9D1FE80FF91F84A595A51E
S11314309F938F931F9283E08F93B1D28BE992E0B5
S11314409F938F930F2EF2E1FF2EF02DFF925F9268
S1131450A6D287E792E09F938F93FF9267969FAD02
S113146067979F939CD20FB6F894DEBF0FBECDBF93
S113147033E0531220C00C3281E01807E0F4689680
S11314809FAD6897911117C027962FAD279721110B
S113149012C09E5F68969FAF689787E792E09F931C
S11314A08F9382E18F9383E08F9379D20F900F9083
S11314B00F900F90512C31E0531221C00D3B12407C
S11314C0F0F068969FAD68979923C9F026962FADE2
S11314D02697211114C0925068969FAF689787E7AA
S11314E092E09F938F9382E18F9381E08F9357D201
S11314F00F900F900F900F906894552451F831E09D
S113150053120CC0161417044CF468968FAD6897E8
S1131510811104C00F2EFEE09F2EF02D92E059128F
S11315200CC0161417044CF468962FAD689721115B
S113153004C00F2EFFE09F2EF02D33E053120BC09A
S11315401614170444F468968FAD6897811103C08C
S11315506894992494F891E059120BC01614170456
S113156044F468962FAD6897222319F0689499245F
S113157094F832E053120CC0161417044CF4689615
S11315808FAD6897882321F00F2EF1E19F2EF02D67
S113159093E05912C7C0161417040CF0C3C0689620
S11315A02FAD6897222309F4BDC006E612E01F930D
S11315B00F931F9281E08F93F2D11F930F931F9289
S11315C082E08F93ECD10FB6F894DEBF0FBECDBF8F
S11315D06894992491F8A6C099AD2F969FAF2F9740
S11315E02AAD60962FAF60973BAD61963FAF619790
S11315F08CAD62968FAF62979DAD63969FAF6397F4
S11316002EAD64962FAF64973FAD65963FAF659757
S113161021968FAD219766968FAF669790E1A99634
S11316209FAFA99727E2AA962FAFAA97AB961FAEB2
S1131630AB97AC961FAEAC97AD961FAEAD97AE967A
S11316401FAEAE97AF961FAEAF97E0961FAEE09772
S113165030E1A1963FAFA19787E2A2968FAFA29700
S1131660A3961FAEA397A4961FAEA497A5961FAEEC
S1131670A597A6961FAEA697A7961FAEA797A8965E
S11316801FAEA89790E269969FAF69972EE46A9679
S11316902FAF6A976B961FAE6B976C961FAE6C97C5
S11316A06D961FAE6D976E961FAE6E976F961FAEBA
S11316B06F97A0961FAEA09738E8E1963FAFE197E9
S11316C083E1E2968FAFE297E3961FAEE397E49649
S11316D01FAEE497E5961FAEE597E6961FAEE69734
S11316E0E7961FAEE797E8961FAEE89768949924AB
S11316F093F818C068961FAE689714C068961FAE1A
S1131700689710C00F2EFDE09F2EF02D0BC068943B
S1131710992491F807C06894992491F803C06894B7
S1131720992491F8E92DF0E0EE0FFF1F21E030E05D
S11317302C0F3D1FE20FF31F808191819F938F93A4
S11317401F921F922CD1842C0F900F900F900F900A
S11317500C94530182B995B90895809109010895B3
S113176083E084BD8BE085BD81E080936E0089EFCA
S113177087BD08952091B1043091B2044091B3041F
S11317805091B4046091B5047091B6048091B7048B
S11317909091B804089511BA10BA109208011092E9
S11317A0070180E480937C008FE080937E008FEFBC
S11317B080937D0087E880937A0010927B000895DF
S11317C0ECE7F0E09081907F9083282F2770922B94
S11317D09083EBE7F0E09081977F8870892B80837A
S11317E0EAE7F0E080818064808380917A0086FD5E
S11317F0FCCF809178009091790008952FEF33E029
S1131800F901E81BF90BC901861B970B241B350B47
S1131810F093A900E093A8009093AB008093AA00F2
S11318203093AD002093AC0008958EEF8093A00018
S11318308BE18093A10083E08093A7008FEF8093D6
S1131840A60040E050E060E070E080E090E0D6CF99
S11318500895882321F084B3816084BB089584B300
S11318608E7F84BB0895882321F084B3826084BB77
S1131870089584B38D7F84BB0895811104C084B519
S11318808F7D84BD089594B5906294BD88BD0895FC
S1131890EF92FF920F931F93CF93DF937C01EB01A1
S11318A081E0D7DF00E010E006C080E0DCDF81E00B
S11318B0DADF0F5F1F4F05301105B8F380E0C9DF91
S11318C080E0D1DF81E0CFDF83E4E816F10419F48E
S11318D080E0BFDF02C081E0BCDF80E0C4DF81E0E4
S11318E0C2DF80E0B6DF80E0BEDF81E0BCDF00E085
S11318F010E011C080E0B7DFC0FF03C081E0A9DFC2
S113190002C080E0A6DFD695C79580E0ACDF81E019
S1131910AADF0F5F1F4F0430110560F380E099DFE9
S113192000E010E006C080E09EDF81E09CDF0F5FF6
S11319301F4F04301105B8F300E010E011C080E03F
S113194092DFC0FF03C081E084DF02C080E081DF5A
S1131950D695C79580E087DF81E085DF0F5F1F4F55
S11319600430110560F380E074DFC0E0D0E005C00E
S113197080E079DF81E077DF2196C430D105C0F3C0
S113198081E067DF87EC90E00197F1F700C0000089
S1131990DF91CF911F910F91FF90EF9008951F93C6
S11319A0CF93DF93CDB7DEB765970FB6F894DEBF5C
S11319B00FBECDBF9E01205E3F4F4E8D5F8D65E112
S11319C070E0CE010196A0D36D8D8C8D90E2899F3D
S11319D0600D1124606870E083E490E059DF10E04A
S11319E005C01F5F70E084E490E052DFE1E0F0E0C6
S11319F0EC0FFD1FE10FF11D60816111F2CF6596BF
S1131A000FB6F894DEBF0FBECDBFDF91CF911F910B
S1131A1008952F923F924F925F926F927F928F928E
S1131A209F92AF92BF92CF92DF92EF92FF920F9369
S1131A301F93CF93DF93CDB7DEB7E4970FB6F89437
S1131A40DEBF0FBECDBF88AB69ABEBA6FCA6502EA4
S1131A50412E2DA73AAB342E252E7C2CAEA62A2D52
S1131A602C0D2FA7253170F083E494E09F938F937E
S1131A7089A98F9328A92F9392DF0F900F900F902D
S1131A800F90AFC08EA5811102C01CAA02C021E034
S1131A902CAB612C7BAA762C6AA833C083E190E03E
S1131AA04C01871891080F2EFAE0AF2EF02DB12CBF
S1131AB0C12CD12CE12CF12C00E010E02BA53CA58D
S1131AC0452D542D6DA5762D832D922D95D2E1E0D3
S1131AD0F0E0EC0FFD1FE80DF91D205D20832BA520
S1131AE03CA5452D542D6DA5762D832D922D86D2A2
S1131AF02BA73CA7542E452E6DA7672E382E292ED2
S1131B00739483E1871550F67BA894E12FA5921B6B
S1131B1080E020E011C0E1E0F0E0EC0FFD1FE90FF0
S1131B20F11D3081E5E1F0E0EC0FFD1FE80FF11D40
S1131B3030838F5F9F5F2F5F271568F32CA92223C3
S1131B4049F0E5E1F0E0EC0FFD1FE80FF11D2EE296
S1131B5020838F5F20E04EA511C0E1E0F0E0EC0FA0
S1131B60FD1FE90FF11D3081E5E1F0E0EC0FFD1FF1
S1131B70E80FF11D30838F5F9F5F2F5F241768F399
S1131B80E5E1F0E0EC0FFD1FE80FF11D108240E0ED
S1131B9009C04F5FE5E1F0E0EC0FFD1FE80FF91F0E
S1131BA020E22083842F90E0E5E1F0E0EC0FFD1FBC
S1131BB0E80FF91F2081203339F4272D30E021501C
S1131BC03109821793072CF3CE0145969F938F9387
S1131BD089A98F9328A92F93E2DE0F900F900F907D
S1131BE00F90E4960FB6F894DEBF0FBECDBFDF9121
S1131BF0CF911F910F91FF90EF90DF90CF90BF9006
S1131C00AF909F908F907F906F905F904F903F9098
S1131C102F90089561E070E083E490E039DE8FE373
S1131C209FE10197F1F700C0000087E792E09F93DE
S1131C308F931F921F92B3DE0F900F900F900F900F
S1131C40089581E010DE80E004DE64E370E083E464
S1131C5090E01EDE69E070E083E490E019DE60E36A
S1131C6070E083E490E014DE6CE070E083E490E0E4
S1131C700FDED0DF67E070E083E490E009DE80E00F
S1131C80FCCD0895FF920F931F93CF93DF93C82F3A
S1131C9085B785BF12B88FEF81B915B884B988B9F3
S1131CA017B88BB91AB88EB91DB89EB19B7F9EB96F
S1131CB011BA10BA94E094BB93B3936093BB93B3FB
S1131CC0906293BB97EC9093020198E39093010187
S1131CD010920501809304011092080110920701EB
S1131CE08CE380930B0110920A01789439DDA9DF0B
S1131CF052DD9BDDCC2309F4A3C08FEFBEDD40E0B1
S1131D0050E06FEF73E080E090E078DD88E594E0E8
S1131D109F938F931F921F9242DE8DE694E09F93D0
S1131D208F931F9281E08F933ADE83E494E09F9334
S1131D308F931F9282E08F9332DE82E894E09F9328
S1131D408F931F9283E08F932ADE8DB79EB74096C0
S1131D500FB6F8949EBF0FBE8DBFFF24F394C0E06E
S1131D6010E001E0D0E0002351F080E090E80D2E77
S1131D7002C0969587950A94E2F7ECDC09C081E0ED
S1131D8090E00D2E02C0880F991F0A94E2F7E2DC5E
S1131D90DF5FD13128F081E0011180E0082FD0E02D
S1131DA0FF2011F0CE5F01C0C2508C2F66DDCE3F04
S1131DB009F4F12CC83711F4FF24F394111117C05E
S1131DC0CCDC837CA1F040E050E066E272E08FEF6F
S1131DD093E014DD87E994E09F938F931F9283E04F
S1131DE08F93DDDD0F900F900F900F9011E0112372
S1131DF019F0B3DC837C39F08FEF9CE70197F1F79E
S1131E0000C00000B0CF06DF80E037DD80E090E066
S1131E10A1DC40E050E060E070E080E090E0EEDCC7
S1131E201092B1041092B2041092B3041092B4044C
S1131E301092B5041092B6041092B7041092B8042C
S1131E40DF91CF911F910F91FF900895CF93DF936E
S1131E50CDB7DEB728970FB6F894DEBF0FBECDBF5F
S1131E6088E0E6E3F2E0DE01119601900D928A9596
S1131E70E1F7E5E0F1E080818F7B8083E091AE04BF
S1131E80F091AF0481E090E08C0F9D1FE80FF91FE3
S1131E90808190E09093AD048093AC0480E026C0F0
S1131EA0E7E3F0E0E81BF109EE0FFF1FE654FB4FF8
S1131EB0408151812091AC043091AD042423352319
S1131EC0232B31F0E5E0F1E090819062908305C02E
S1131ED0E5E0F1E090819F7D9083E5E0F1E0908181
S1131EE09061908390819F7E90838F5F8833C0F24E
S1131EF0E5E0F1E08081877F80838081887F808333
S1131F0090818091AE04892B80838081806480835A
S1131F108081886080838091AE049091AF04873083
S1131F20910530F401969093AF048093AE0407C0FA
S1131F301092AF041092AE0481E08093B00428960E
S1131F400FB6F894DEBF0FBECDBFDF91CF910895D9
S1131F501F920F920FB60F9211240BB60F922F936C
S1131F603F934F935F936F937F938F939F93AF931D
S1131F70BF93EF93FF932091B1043091B204409149
S1131F80B3045091B4046091B5047091B604809187
S1131F90B7049091B804A1E096D02093B104309393
S1131FA0B2044093B3045093B4046093B5047093A3
S1131FB0B6048093B7049093B8048091B904811156
S1131FC045DFFF91EF91BF91AF919F918F917F91E9
S1131FD06F915F914F913F912F910F900BBE0F9096
S1131FE00FBE0F901F901895EE0FFF1F881F8BBF19
S1131FF00790F691E02D1994689401C0E8948F92AB
S11320009F92CF93DF9305D0DF91CF919F908F90D4
S1132010089588249924F401E401B0E49F93AA2745
S11320209A158B049C04ED05FE05CF05D007A10786
S113203098F4AD2FDC2FCF2FFE2FE92D982C892E6D
S1132040982F872F762F652F542F432F322F222737
S1132050B85031F7BF9127C01B2EBF91BB27220F69
S1132060331F441F551F661F771F881F991F881C25
S1132070991CEE1FFF1FCC1FDD1FAA1FBB1F8A1454
S11320809B04EC05FD05CE05DF05A007B10748F06C
S11320908A189B08EC09FD09CE09DF09A00BB10BD6
S11320A021601A94E1F62EF49401AF01BE01CD0132
S11320B0000C08952A0D3B1D4C1D5D1D6E1D7F1DDA
S11320C0801F911F08950024A7FD00942A0F301D3E
S11320D0401D501D601D701D801D901D08952A19FE
S11320E03B094C095D096E097F09800B910B08952A
S11320F00024A7FD00942A1730054005500560050B
S113210070058005900508950F931F93CF93DF9377
S1132110CDB7DEB72E970FB6F894DEBF0FBECDBF96
S11321208C01FA0186E08C831A83098377FF02C04D
S113213060E070E8CB0101979E838D83A901BF0104
S1132140CE01019619D04D815E8157FD0AC02F81C1
S11321503885421753070CF49A01F801E20FF31F74
S113216010822E960FB6F894DEBF0FBECDBFDF915E
S1132170CF911F910F9108952F923F924F925F92AA
S11321806F927F928F929F92AF92BF92CF92DF9283
S1132190EF92FF920F931F93CF93DF93CDB7DEB7E8
S11321A02B970FB6F894DEBF0FBECDBF6C017B0139
S11321B08A01FC0117821682838181FFBFC1CE018F
S11321C001963C01F6019381F70193FD859193FFFC
S11321D081917F01882309F4ADC1853239F493FDDF
S11321E0859193FF81917F01853221F4B60190E0BE
S11321F0D6D1E8CF912C212C312CFFE1F315D8F066
S11322008B3279F038F4803279F08332A1F4232DC3
S113221020611DC08D3261F0803369F4232D21606B
S113222016C0832D8260382EE32DE4603E2E2AC032
S1132230F32DF8601DC037FC2DC020ED280F2A3087
S113224040F08E32B9F436FC75C1232D2064322E51
S113225019C036FE06C08AE0989E200D1124922EE5
S113226011C0EAE02E9E200D1124222EF32DF062DF
S11322703F2E08C08C3621F4832D8068382E02C08E
S1132280883641F4F70193FD859193FF81917F0195
S11322908111B3CF982F9F7D9554933028F40C5F10
S11322A01F4F9FE399830DC0833631F0833771F05C
S11322B0833509F055C020C0F801808189830E5F01
S11322C01F4F88248394912C530112C02801F2E0FB
S11322D04F0E511CF801A080B18036FE03C0692D59
S11322E070E002C06FEF7FEFC5014ED14C01820157
S11322F0F32DFF773F2E15C0280122E0420E511C1A
S1132300F801A080B18036FE03C0692D70E002C0E0
S11323106FEF7FEFC5012DD14C01F32DF0683F2EF7
S1132320820133FC19C0822D90E088169906A0F42E
S1132330B60180E290E033D12A94F5CFF50137FC61
S1132340859137FE81915F01B60190E028D121107B
S11323502A9421E0821A91088114910479F7E1C04A
S1132360843611F0893639F5F80137FE07C06081EB
S11323707181828193810C5F1F4F08C060817181DC
S1132380072E000C880B990B0E5F1F4FF32DFF7661
S11323903F2E97FF09C090958095709561957F4F6A
S11323A08F4F9F4FF0683F2E2AE030E0A30133D1D6
S11323B0882E861844C0853731F4232D2F7EB22E03
S11323C02AE030E025C0932D997FB92E8F36C1F0D5
S11323D018F4883579F0AEC0803719F0883721F0C9
S11323E0A9C0E92FE061BE2EB4FE0DC0FB2DF46040
S11323F0BF2E09C034FE0AC0292F2660B22E06C0A3
S113240028E030E005C020E130E002C020E132E005
S1132410F801B7FE07C060817181828193810C5FEE
S11324201F4F06C06081718180E090E00E5F1F4FF6
S1132430A301F1D0882E8618FB2DFF773F2E36FEA0
S11324400DC0232D2E7FA22E891458F434FE0BC008
S113245032FC09C0832D8E7EA82E05C0B82CA32C77
S113246003C0B82C01C0B92CA4FE0FC0FE01E80DB6
S1132470F11D8081803321F49A2D997EA92E09C003
S1132480A2FE06C0B394B39404C08A2D867809F0E2
S1132490B394A3FC10C0A0FE06C0B21480F4280CB0
S11324A0922C9B180DC0B21458F4B60180E290E04F
S11324B076D0B394F8CFB21418F42B1802C0982C29
S11324C0212CA4FE0FC0B60180E390E068D0A2FEE8
S11324D016C0A1FC03C088E790E002C088E590E044
S11324E0B6010CC08A2D867851F0A1FE02C08BE2A1
S11324F001C080E2A7FC8DE2B60190E050D08914BF
S113250030F4B60180E390E04AD09A94F8CF8A94EC
S1132510F301E80DF11D8081B60190E040D08110F7
S1132520F6CF222009F44ECEB60180E290E037D0F7
S11325302A94F7CFF6018681978102C08FEF9FEF2F
S11325402B960FB6F894DEBF0FBECDBFDF91CF91AF
S11325501F910F91FF90EF90DF90CF90BF90AF90BD
S11325609F908F907F906F905F904F903F902F90AF
S11325700895FC010590615070400110D8F78095D2
S113258090958E0F9F1F0895FC016150704001903B
S11325900110D8F7809590958E0F9F1F08950F9383
S11325A01F93CF93DF93FB01238121FD03C08FEFA2
S11325B09FEF2CC022FF16C04681578124813581AC
S11325C04217530744F4A081B1819D012F5F3F4F0F
S11325D0318320838C93268137812F5F3F4F37834C
S11325E0268314C08B01EC01FB010084F185E02DEE
S11325F01995892BE1F6D80116968D919C91179720
S1132600019617969C938E931697CE01DF91CF91E6
S11326101F910F910895FA01AA27283051F1203112
S113262081F1E8946F936E7F6E5F7F4F8F4F9F4F62
S1132630AF4FB1E03ED0B4E03CD0670F781F891FA4
S11326409A1FA11D680F791F8A1F911DA11D6A0F72
S1132650711D811D911DA11D20D009F468943F9125
S11326602AE0269F11243019305D3193DEF6CF0124
S11326700895462F4770405D4193B3E00FD0C9F7EA
S1132680F6CF462F4F70405D4A3318F0495D31FD57
S11326904052419302D0A9F7EACFB4E0A6959795AA
S11326A0879577956795BA95C9F700976105710580
S11326B008959B01AC010A2E0694579547953795CA
S11326C02795BA95C9F7620F731F841F951FA01D24
S10926D00895F894FFCF09
S11326D6D802E502F202FF020C03190326033303B0
S11326E640034D035A03670374037C0382038E037A
S11326F69C03AA03BC03C603D003DA03E403F7036B
S11327060A041D043004010204081020408050729B
S11327166F6772616D6D7761686C3A0057617274A8
S1132726756E6720202020203A00202020202020BB
S1132736202020202020202020202020202020208F
S11327462020202020202020007300416262726530
S11327566368656E3A005061757365202020203ADF
S11327660041626272656368656E3A78004261632D
S11327766B3A782020202020202020202020202092
S11327862020202020200042796369636C65206D37
S1132796697373696E6721212121004E6F205741A9
S11327A654455221212121004E6F746175732020F6
S11327B62020202000417573202020202020202066
S11327C6200045696E202020202020202020005053
S11327D6726F6772616D6D7761686C0057617274B0
S11327E6756E672020202020005072656D69756D16
S11327F6202020202000496E74656E73697620209F
S11328062020005363686E656C6C20202020200015
S1132816566F727761657363686520200048617539
S113282670747761657363686500537075656C656C
S11328366E20202020200054726F636B6E656E201C
S1132846202020004665686C65722100506175730E
S1132856650056656E74696C205465737400547211
S11328666F636B6E6572205465737400427565728E
S11328767374656E2054657374005761737365725F
S113288670756D70656E2054657374005072656D55
S113289669756D203A00496E74656E7369763A00FF
S11328A65363686E656C6C203A004261636B20204A
S11328B620203A0056656E74696C20546573742042
S11328C620202020203A0054726F636B6E657420BA
S11328D654657374202020203A004275657273741F
S11328E6656E2054657374202020203A0057617366
S11328F673657270756D70656E20546573743A00F5
S11329064261636B202020202020202020202020CC
S1132916203A002D2D2D2D2D2D2D2D2D2D2D2D2D0A
S11329262D2D2D2D2D2D2D002020202020207543EA
S11329362D426F6172642020202020200041546DB6
S113294665676132353630206174203136204D4852
S11329567A00507265737320616E79206B657920F5
S1132966746F2072756E00202072656C65617365E4
S10F297620616C6C206B657973202000DC
S9030000FC
