:1000000071C000008FC000008DC000008BC00000D8
:1000100089C0000087C0000085C0000083C00000C8
:1000200081C000007FC000007DC000007BC00000D8
:1000300079C0000077C0000075C0000073C00000E8
:1000400071C000006FC000006DC000006BC00000F8
:1000500069C0000067C0000065C0000094C50000D2
:1000600061C000005FC000005DC000005BC0000018
:1000700059C0000057C0000055C0000053C0000028
:1000800051C000004FC000004DC000004BC0000038
:1000900049C0000047C0000045C0000043C0000048
:1000A00041C000003FC000003DC000003BC0000058
:1000B00039C0000037C0000035C0000033C0000068
:1000C00031C000002FC000002DC000002BC0000078
:1000D00029C0000027C0000025C0000023C0000088
:1000E00021C0000011241FBECFEFD1E2DEBFCDBF83
:1000F00000E00CBF12E0A0E0B2E0EAE7F3E100E0CC
:100100000BBF02C007900D92AC39B107D9F723E0BD
:10011000ACE9B2E001C01D92AA31B207E1F703D009
:100120000C94BB096DCFCF93DF93CDB7DEB7A39708
:100130000FB6F894DEBF0FBECDBF80E0BED31982EC
:100140001A821B821C82CE0102969E838D830296A8
:1001500098878F8303979A87898702969C878B87D6
:100160001BA221E02F8B1A8E1C8E1D8A1D861E86D7
:100170001F86188A198A1A8A1B8A1C8A1AA219A22F
:1001800018A21B8E49E0488F65E06E8B1F8E1E8E75
:10019000198E1D8E0BD2222E332E442E552E662EF6
:1001A000772E882E992E8AE027D28C018BE024D2DC
:1001B000083C110560F4ED8DEE2349F028A12111D2
:1001C00006C0E150ED8F1AA219A241E04B8F21E049
:1001D00030E0083363E0160710F420E030E0E98DEA
:1001E0004E2F50E024233523232B49F02B8D211152
:1001F00006C0E150E98F1AA219A241E048A3883C49
:10020000910560F46F8D662349F0E9A1E11106C004
:1002100061506F8F21E02AA318A21B8E813243E028
:10022000940760F06E8D662349F0EAA1E11106C0E3
:1002300061506E8F21E029A318A21B8E0D52114030
:100240000B32114020F461E0698FE1E0ED8F8D52B7
:1002500091408B32914020F441E04F8F61E06E8FEE
:10026000222D332D442D552D662D772D882D992D3A
:10027000AD84BE84CF84D888E988FA880B891C892C
:10028000E9D4243F314041055105610571058105DF
:100290009105A9F0A0F02B8D222389F04D89411101
:1002A0000EC06E896983888D8A838F5F888F2D86C3
:1002B0003E864F86588A698A7A8A8B8A9C8A222D42
:1002C000332D442D552D662D772D882D992DAD84F8
:1002D000BE84CF84D888E988FA880B891C89BAD46F
:1002E000243F3140410551056105710581059105A6
:1002F000A9F0A0F028A1222389F04D8941110EC058
:100300006E896983888D8A838150888F2D863E8689
:100310004F86588A698A7A8A8B8A9C8A222D332D45
:10032000442D552D662D772D882D992DAD84BE84B5
:10033000CF84D888E988FA880B891C898BD4243F1C
:100340003140410551056105710581059105A9F00F
:10035000A0F029A1222389F04D8941110EC06E8998
:100360006983888D8A8361506E8B2D863E864F8689
:10037000588A698A7A8A8B8A9C8A222D332D442D49
:10038000552D662D772D882D992DAD84BE84CF8473
:10039000D888E988FA880B891C895CD4243F3140CD
:1003A000410551056105710581059105A9F0A0F090
:1003B0002AA1222389F04D8941110EC06E896983DB
:1003C000888D8A836F5F6E8B2D863E864F86588A16
:1003D000698A7A8A8B8A9C8A91E08E8984508430DB
:1003E00008F490E081E0E88DE43108F480E09111B8
:1003F00002C0882311F021E02D8B4D89413049F551
:100400000CE012E01F930F931F921F92E4D11F93F1
:100410000F931F92992493949F92DDD11F930F9372
:100420001F9282E08F93D7D11F930F931F9283E087
:100430008F93D1D181E292E09F938F9385E08F9348
:100440009F92C9D10FB6F894DEBF0FBECDBF92E028
:100450009D8BEC8DE11146C04DD44C0181E0CCD098
:10046000889E8001899E100D989E100D11248DE0AC
:10047000C3D0089FA001099F500D189F500D112453
:100480009A01ADECBCECCBD38C01129502950F70A8
:1004900001271F70012724E1209FC001219F900D9B
:1004A00011248A01081B190B0A8F24D4182F81E00C
:1004B000A3D0189F102D11248DE09ED0189F802D61
:1004C000112483708C5F8F8B8AE292E09F938F93CD
:1004D0000F932F892F937FD10F900F900F900F9034
:1004E00041E04C8F6E898F89681308C0988DEA8D22
:1004F0009E1304C02BA12F5F2BA31C8E4D8941118D
:1005000040C08CE292E09F938F93688D6F938E89A9
:100510008F9361D10F900F900F900F909BA1992313
:1005200069F08EE292E09F938F938C818F938B8101
:100530008F9351D10F900F900F900F902BA1E22F1E
:10054000F0E0EE0FFF1F81E090E08C0F9D1FE80FA1
:10055000F91FA481B5813C910084F185E02D2081B3
:100560008FE192E09F938F933F932F9334D18A81B1
:100570008C8389818B838FEF9CD00F900F900F908D
:100580000F909A8D92B9EF89E5B904CE82B995B9E9
:10059000089580910901089583E084BD8BE085BDB5
:1005A00081E080936E0089EF87BD08952091A102BC
:1005B0003091A2024091A3025091A4026091A50241
:1005C0007091A6028091A7029091A802089511BA95
:1005D00010BA109208011092070180E480937C0009
:1005E0008FE080937E008FEF80937D0087E880937B
:1005F0007A0010927B000895ECE7F0E09081907F04
:100600009083282F2770922B9083EBE7F0E0908166
:10061000977F8870892B8083EAE7F0E0808180648F
:10062000808380917A0086FDFCCF80917800909144
:10063000790008952FEF33E0F901E81BF90BC901A8
:10064000861B970B241B350BF093A900E093A800A1
:100650009093AB008093AA003093AD002093AC0040
:1006600008958EEF8093A0008BE18093A10083E03A
:100670008093A7008FEF8093A60040E050E060E0F9
:1006800070E080E090E0D6CF0895882321F084B315
:10069000816084BB089584B38E7F84BB08958823D2
:1006A00021F084B3826084BB089584B38D7F84BBC2
:1006B0000895811104C084B58F7D84BD089594B5DB
:1006C000906294BD88BD0895EF92FF920F931F939F
:1006D000CF93DF937C01EB0181E0D7DF00E010E0F6
:1006E00006C080E0DCDF81E0DADF0F5F1F4F0530FE
:1006F0001105B8F380E0C9DF80E0D1DF81E0CFDF12
:1007000083E4E816F10419F480E0BFDF02C081E061
:10071000BCDF80E0C4DF81E0C2DF80E0B6DF80E0E4
:10072000BEDF81E0BCDF00E010E011C080E0B7DF99
:10073000C0FF03C081E0A9DF02C080E0A6DFD6953C
:10074000C79580E0ACDF81E0AADF0F5F1F4F043068
:10075000110560F380E099DF00E010E006C080E062
:100760009EDF81E09CDF0F5F1F4F04301105B8F35F
:1007700000E010E011C080E092DFC0FF03C081E024
:1007800084DF02C080E081DFD695C79580E087DFF7
:1007900081E085DF0F5F1F4F0430110560F380E0BB
:1007A00074DFC0E0D0E005C080E079DF81E077DF72
:1007B0002196C430D105C0F381E067DF87EC90E07B
:1007C0000197F1F700C00000DF91CF911F910F91C9
:1007D000FF90EF9008951F93CF93DF93CDB7DEB7CF
:1007E00065970FB6F894DEBF0FBECDBF9E01205EA9
:1007F0003F4F4E8D5F8D65E170E0CE01019688D24E
:100800006D8D8C8D90E2899F600D1124606870E081
:1008100083E490E059DF10E005C01F5F70E084E4DE
:1008200090E052DFE1E0F0E0EC0FFD1FE10FF11D81
:1008300060816111F2CF65960FB6F894DEBF0FBEEE
:10084000CDBFDF91CF911F91089561E070E083E407
:1008500090E03ADF8FE39FE10197F1F700C00000DD
:100860008FE192E09F938F931F921F92B4DF0F90BE
:100870000F900F900F90089581E011DF80E005DF69
:1008800064E370E083E490E01FDF69E070E083E4FC
:1008900090E01ADF60E370E083E490E015DF6CE045
:1008A00070E083E490E010DFD0DF67E070E083E485
:1008B00090E00ADF80E0FDCE0895FF920F931F9332
:1008C000CF93DF93C82F85B785BF12B88FEF81B95B
:1008D00015B884B988B917B88BB91AB88EB91DB8CC
:1008E0009EB19B7F9EB911BA10BA94E094BB93B3AA
:1008F000936093BB93B3906293BB97EC9093020188
:1009000098E39093010110920501809304011092E5
:100910000801109207018CE380930B0110920A01E9
:1009200078943ADEA9DF53DE9CDECC2309F4A3C021
:100930008FEFBFDE40E050E06FEF73E080E090E0CB
:1009400079DE85E492E09F938F931F921F9243DF9D
:100950008AE592E09F938F931F9281E08F933BDF14
:1009600080E392E09F938F931F9282E08F9333DF17
:100970008FE692E09F938F931F9283E08F932BDFFC
:100980008DB79EB740960FB6F8949EBF0FBE8DBF31
:10099000FF24F394C0E010E001E0D0E0002351F028
:1009A00080E090E80D2E02C0969587950A94E2F7B4
:1009B000EDDD09C081E090E00D2E02C0880F991F87
:1009C0000A94E2F7E3DDDF5FD13128F081E0011125
:1009D00080E0082FD0E0FF2011F0CE5F01C0C250B0
:1009E0008C2F67DECE3F09F4F12CC83711F4FF24B9
:1009F000F394111117C0CDDD837CA1F040E050E0ED
:100A000066E272E08FEF93E015DE84E892E09F9358
:100A10008F931F9283E08F93DEDE0F900F900F90E5
:100A20000F9011E0112319F0B4DD837C39F08FEFC2
:100A30009CE70197F1F700C00000B0CF06DF80E02F
:100A400038DE80E090E0A2DD40E050E060E070E061
:100A500080E090E0EFDD1092A1021092A2021092CD
:100A6000A3021092A4021092A5021092A602109264
:100A7000A7021092A802DF91CF911F910F91FF90D2
:100A80000895CF93DF93CDB7DEB728970FB6F894CC
:100A9000DEBF0FBECDBF88E0E4E0F2E0DE011196DC
:100AA00001900D928A95E1F7E5E0F1E080818F7B7E
:100AB0008083E0919E02F0919F0281E090E08C0F94
:100AC0009D1FE80FF91F808190E090939D02809315
:100AD0009C0280E026C0E7E3F0E0E81BF109EE0F9E
:100AE000FF1FE655FD4F4081518120919C023091BE
:100AF0009D0224233523232B31F0E5E0F1E09081A2
:100B00009062908305C0E5E0F1E090819F7D908345
:100B1000E5E0F1E090819061908390819F7E9083E9
:100B20008F5F8833C0F2E5E0F1E08081877F8083CA
:100B30008081887F8083908180919E02892B808331
:100B400080818064808380818860808380919E0220
:100B500090919F028730910530F4019690939F0207
:100B600080939E0207C010929F0210929E0281E025
:100B70008093A00228960FB6F894DEBF0FBECDBFBB
:100B8000DF91CF9108951F920F920FB60F9211240B
:100B90000BB60F922F933F934F935F936F937F9377
:100BA0008F939F93AF93BF93EF93FF932091A102F5
:100BB0003091A2024091A3025091A4026091A5023B
:100BC0007091A6028091A7029091A802A1E036D070
:100BD0002093A1023093A2024093A3025093A40257
:100BE0006093A5027093A6028093A7029093A80237
:100BF0008091A902811145DFFF91EF91BF91AF91E3
:100C00009F918F917F916F915F914F913F912F9124
:100C10000F900BBE0F900FBE0F901F901895A29FC4
:100C2000B001B39FC001A39F700D811D1124911DC0
:100C3000B29F700D811D1124911D08950024A7FD00
:100C400000942A0F301D401D501D601D701D801D19
:100C5000901D08952A193B094C095D096E097F0909
:100C6000800B910B08958F929F92AF92BF92CF927B
:100C7000DF92EF92FF92CF93DF93EC01688179814D
:100C80008A819B81611571058105910521F464E2DA
:100C900079ED8BE597E02DE133EF41E050E01DD396
:100CA00049015A019B01AC01A7EAB1E432D36B01BF
:100CB0007C01ACEEB4EFA501940137D3DC01CB018C
:100CC0008C0D9D1DAE1DBF1DB7FF03C00197A1096F
:100CD000B04888839983AA83BB839F77DF91CF91A4
:100CE000FF90EF90DF90CF90BF90AF909F908F904C
:100CF0000895B9CF80E092E0B6CFA0E0B0E0809355
:100D0000000290930102A0930202B093030208959F
:100D10000F931F93CF93DF93CDB7DEB72E970FB608
:100D2000F894DEBF0FBECDBF8C01FA0186E08C8344
:100D30001A83098377FF02C060E070E8CB01019756
:100D40009E838D83A901BF01CE01019619D04D81EB
:100D50005E8157FD0AC02F813885421753070CF476
:100D60009A01F801E20FF31F10822E960FB6F89445
:100D7000DEBF0FBECDBFDF91CF911F910F910895C0
:100D80002F923F924F925F926F927F928F929F929B
:100D9000AF92BF92CF92DF92EF92FF920F931F9389
:100DA000CF93DF93CDB7DEB72B970FB6F894DEBFA6
:100DB0000FBECDBF6C017B018A01FC011782168238
:100DC000838181FFBFC1CE0101963C01F601938171
:100DD000F70193FD859193FF81917F01882309F4A9
:100DE000ADC1853239F493FD859193FF81917F01E7
:100DF000853221F4B60190E0D6D1E8CF912C212C98
:100E0000312CFFE1F315D8F08B3279F038F48032D1
:100E100079F08332A1F4232D20611DC08D3261F061
:100E2000803369F4232D216016C0832D8260382E13
:100E3000E32DE4603E2E2AC0F32DF8601DC037FC80
:100E40002DC020ED280F2A3040F08E32B9F436FC48
:100E500075C1232D2064322E19C036FE06C08AE0EB
:100E6000989E200D1124922E11C0EAE02E9E200D96
:100E70001124222EF32DF0623F2E08C08C3621F46F
:100E8000832D8068382E02C0883641F4F70193FD27
:100E9000859193FF81917F018111B3CF982F9F7D21
:100EA0009554933028F40C5F1F4F9FE399830DC036
:100EB000833631F0833771F0833509F055C020C097
:100EC000F801808189830E5F1F4F88248394912CC1
:100ED000530112C02801F2E04F0E511CF801A0800E
:100EE000B18036FE03C0692D70E002C06FEF7FEF66
:100EF000C5014ED14C018201F32DFF773F2E15C065
:100F0000280122E0420E511CF801A080B18036FE7B
:100F100003C0692D70E002C06FEF7FEFC5012DD1D6
:100F20004C01F32DF0683F2E820133FC19C0822D55
:100F300090E088169906A0F4B60180E290E033D1E3
:100F40002A94F5CFF50137FC859137FE81915F0139
:100F5000B60190E028D121102A9421E0821A91084C
:100F60008114910479F7E1C0843611F0893639F59E
:100F7000F80137FE07C060817181828193810C5F27
:100F80001F4F08C060817181072E000C880B990BE0
:100F90000E5F1F4FF32DFF763F2E97FF09C09095F0
:100FA0008095709561957F4F8F4F9F4FF0683F2ED2
:100FB0002AE030E0A30133D1882E861844C085375B
:100FC00031F4232D2F7EB22E2AE030E025C0932D60
:100FD000997FB92E8F36C1F018F4883579F0AEC0FC
:100FE000803719F0883721F0A9C0E92FE061BE2EC3
:100FF000B4FE0DC0FB2DF460BF2E09C034FE0AC044
:10100000292F2660B22E06C028E030E005C020E17E
:1010100030E002C020E132E0F801B7FE07C0608195
:101020007181828193810C5F1F4F06C06081718145
:1010300080E090E00E5F1F4FA301F1D0882E86184C
:10104000FB2DFF773F2E36FE0DC0232D2E7FA22EC7
:10105000891458F434FE0BC032FC09C0832D8E7EF7
:10106000A82E05C0B82CA32C03C0B82C01C0B92CE5
:10107000A4FE0FC0FE01E80DF11D8081803321F434
:101080009A2D997EA92E09C0A2FE06C0B394B394EE
:1010900004C08A2D867809F0B394A3FC10C0A0FE8A
:1010A00006C0B21480F4280C922C9B180DC0B21408
:1010B00058F4B60180E290E076D0B394F8CFB21441
:1010C00018F42B1802C0982C212CA4FE0FC0B601D6
:1010D00080E390E068D0A2FE16C0A1FC03C088E7C0
:1010E00090E002C088E590E0B6010CC08A2D8678B9
:1010F00051F0A1FE02C08BE201C080E2A7FC8DE2AC
:10110000B60190E050D0891430F4B60180E390E04D
:101110004AD09A94F8CF8A94F301E80DF11D8081AA
:10112000B60190E040D08110F6CF222009F44ECED7
:10113000B60180E290E037D02A94F7CFF60186819D
:10114000978102C08FEF9FEF2B960FB6F894DEBF0A
:101150000FBECDBFDF91CF911F910F91FF90EF9008
:10116000DF90CF90BF90AF909F908F907F906F90C7
:101170005F904F903F902F900895FC010590615033
:1011800070400110D8F7809590958E0F9F1F08959D
:10119000FC016150704001900110D8F78095909546
:1011A0008E0F9F1F08950F931F93CF93DF93FB0123
:1011B000238121FD03C08FEF9FEF2CC022FF16C0BB
:1011C00046815781248135814217530744F4A08119
:1011D000B1819D012F5F3F4F318320838C93268106
:1011E00037812F5F3F4F3783268314C08B01EC017B
:1011F000FB010084F185E02D1995892BE1F6D801DA
:1012000016968D919C911797019617969C938E93A5
:101210001697CE01DF91CF911F910F910895FA019A
:10122000AA27283051F1203181F1E8946F936E7F25
:101230006E5F7F4F8F4F9F4FAF4FB1E03ED0B4E016
:101240003CD0670F781F891F9A1FA11D680F791F57
:101250008A1F911DA11D6A0F711D811D911DA11D68
:1012600020D009F468943F912AE0269F1124301978
:10127000305D3193DEF6CF010895462F4770405D13
:101280004193B3E00FD0C9F7F6CF462F4F70405DC2
:101290004A3318F0495D31FD4052419302D0A9F71D
:1012A000EACFB4E0A6959795879577956795BA9517
:1012B000C9F700976105710508959B01AC010A2EDD
:1012C00006945795479537952795BA95C9F7620FB4
:1012D000731F841F951FA01D0895052E97FB16F4FC
:1012E00000940FD057FD05D024D007FC02D046F45F
:1012F00008C050954095309521953F4F4F4F5F4F17
:10130000089590958095709561957F4F8F4F9F4F71
:10131000089585DCA59F900DB49F900DA49F800D2E
:10132000911D11240895B7FFF4CFF3DF821B930BB7
:101330000895A1E21A2EAA1BBB1BFD010DC0AA1F16
:10134000BB1FEE1FFF1FA217B307E407F50720F02E
:10135000A21BB30BE40BF50B661F771F881F991FA9
:101360001A9469F760957095809590959B01AC01F2
:0A137000BD01CF010895F894FFCFEE
:10137A0001000000010204081020408020202020E3
:10138A002020202020202020202020202020202053
:10139A0000596F75204C6F7374004F005800780025
:1013AA002D2D2D2D2D2D2D2D2D2D2D2D2D2D2D2D63
:1013BA002D2D2D2D0020202020202075432D426F19
:1013CA006172642020202020200041546D656761ED
:1013DA0032353630206174203136204D487A00503B
:1013EA007265737320616E79206B657920746F2042
:1013FA0072756E00202072656C6561736520616C80
:0C140A006C206B6579732020003A000014
:00000001FF
