:1000000071C000008FC000008DC000008BC00000D8
:1000100089C0000087C0000085C0000083C00000C8
:1000200081C000007FC000007DC000007BC00000D8
:1000300079C0000077C0000075C0000073C00000E8
:1000400071C000006FC000006DC000006BC00000F8
:1000500069C0000067C0000065C000000C9459082A
:1000600061C000005FC000005DC000005BC0000018
:1000700059C0000057C0000055C0000053C0000028
:1000800051C000004FC000004DC000004BC0000038
:1000900049C0000047C0000045C0000043C0000048
:1000A00041C000003FC000003DC000003BC0000058
:1000B00039C0000037C0000035C0000033C0000068
:1000C00031C000002FC000002DC000002BC0000078
:1000D00029C0000027C0000025C0000023C0000088
:1000E00021C0000011241FBECFEFD1E2DEBFCDBF83
:1000F00000E00CBF15E0A0E0B2E0E8EFF7E100E0BF
:100100000BBF02C007900D92A230B107D9F725E0CE
:10011000A2E0B5E001C01D92A038B207E1F703D01C
:100120000C94FA0B6DCFCF93DF93CDB7DEB7CA57E0
:10013000D1090FB6F894DEBF0FBECDBF80E053D615
:1001400086E2E0E0F2E0DE01119601900D928A95E0
:10015000E1F78EE1E6E2F2E0DE01979601900D9282
:100160008A95E1F786E0E4E4F2E0DE01AB5BBF4FA5
:1001700001900D928A95E1F78AE0EAE4F2E0DE016F
:10018000A55BBF4F01900D928A95E1F7E3961CAEF7
:100190001DAE1EAE1FAEE397A6961CAE1DAE1EAEE4
:1001A0001FAEA697312C00E0C12C10E0F12C25E009
:1001B000EB962FAFEB9745E0E9964FAFE997EA96BC
:1001C0001FAEEA97E4961FAEE497AC961FAEAC97CD
:1001D000512C252C88E0A6D42AE5DC012A9FC001F9
:1001E0002B9F900D11246FEF73E0AFD7962EE62E64
:1001F00081E0629B80E0A2968FAFA2979F2D982707
:10020000782E79228BE08ED45C018AE08BD4B1E227
:10021000AB16B3E0BB0638F4E8ECAE16B10438F424
:100220004424439405C06894442441F801C0412CFF
:10023000813223E0920730F4883C910538F466243B
:10024000639405C06894662461F801C0612C842D14
:1002500081278421482F4270F42E182F1170862D8B
:100260008C258621582F5270AE965FAFAE97817065
:10027000AF968FAFAF9730D46E962FAF6E976F96C5
:100280003FAF6F97A0964FAFA097A1965FAFA19792
:10029000A7966FAFA797A8967FAFA897A9968FAF9D
:1002A000A997AA969FAFAA970AD4882E0827082351
:1002B0000270AB960FAFAB97F110539411115A9493
:1002C000332021F081E03816B9F1D2C3E52DF0E0FA
:1002D000EE0FFF1FA1E0B0E0AC0FBD1FEA0FFB1F48
:1002E00086A197A19F938F931F9281E08F9309D549
:1002F0000CE512E01F930F931F9282E08F9301D5BC
:100300001F930F931F9283E08F93FBD40FB6F89443
:10031000DEBF0FBECDBF772021F033243394350CE0
:10032000512C5FE0551508F491C3551609F496C396
:10033000E4961FAEE4979CC3E4968FADE4978111D9
:100340001CC06E963FAD6E976F962FAD6F97A096BF
:100350009FADA097A1968FADA197A3963FAFA3970E
:10036000A4962FAFA497A5969FAFA597A6968FAFFB
:10037000A69791E0E4969FAFE497EE2029F0A1E0E4
:10038000AD96AFAFAD9703C0AD961FAEAD97211040
:1003900035C01F92E996BFADE997BF9381E792E020
:1003A0009F938F931F9283E08F93ABD48AE692E062
:1003B0009F938F931F9282E08F93A3D40FB6F894EC
:1003C000DEBF0FBECDBFAD965FADAD975523B1F08B
:1003D000E52DF0E0EE0FFF1F85E490E08C0F9D1FF0
:1003E000E80FF91F808191819F938F931F9281E085
:1003F0008F9387D40F900F900F900F90AD969FAD75
:10040000AD97992309F49EC0E3968CAD9DADAEAD3A
:10041000BFADE3975C016D01E12CF12C87016E9675
:100420002FAD6E976F963FAD6F97A0964FADA0978B
:10043000A1965FADA197A7966FADA797A8967FAD40
:10044000A897A9968FADA997AA969FADAA976A96E5
:10045000EFAE6A976B96FFAE6B976C960FAF6C978B
:100460006D961FAF6D97E12CF12C00E010E0A9D63E
:10047000A22EB32EC42ED52EE62EF72E082F192F1E
:100480002DEC929E212D112426952695269530E05F
:1004900040E050E060E479E181E090E06AD669965E
:1004A0002CAF3DAF4EAF5FAF6997DA01C901BB0F0B
:1004B000880B982FDC01E8968CAF9DAFAEAFBFAF35
:1004C000E8972A2D3B2D4C2D5D2D6E2D7F2D802FF5
:1004D000912F6696AFAC66976796BFAC67976896A4
:1004E000CFAC68976996DFAC6997E596EFACE59776
:1004F000FE2C0E2D1E2D6ED609F008F4D0C0E99604
:100500009FADE997963108F0CAC09F5FE9969FAF0B
:10051000E9976E963FAD6E976F962FAD6F97A09649
:100520009FADA097A1968FADA197E0963FAFE097C2
:10053000E1962FAFE197E2969FAFE297E3968FAFF8
:10054000E397ADC0E3968CAD9DADAEADBFADE39787
:100550005C016D01E12CF12C87016E962FAD6E9739
:100560006F963FAD6F97A0964FADA097A1965FADE8
:10057000A197A7966FADA797A8967FADA897A996C4
:100580008FADA997AA969FADAA976696AFAE6697CC
:100590006796BFAE67976896CFAE68976996DFAEED
:1005A00069976A96EFAE6A976B96FFAE6B976C96FB
:1005B0000FAF6C976D961FAF6D97E12CF12C00E09B
:1005C00010E0FFD5E22EF32E042F152FB62FA72F04
:1005D000F82FD92E283E334041055105610571059C
:1005E0008105910531F128F1E9962FADE997EB9658
:1005F0004FADEB974217E8F42150E9962FAFE997FA
:100600006E963FAD6E976F962FAD6F97A0969FAD8C
:10061000A097A1968FADA197E0963FAFE097E196A6
:100620002FAFE197E2969FAFE297E3968FAFE39704
:1006300036C02E2D3F2D402F512F6B2F7A2F8F2F0D
:100640009D2D283E33404105510561057105810509
:10065000910529F120F1E996BFADE997EB96EFAD51
:10066000EB97BE17E0F4BF5FE996BFAFE9976E96D0
:100670003FAD6E976F962FAD6F97A0969FADA097E9
:10068000A1968FADA197E0963FAFE097E1962FAF8F
:10069000E197E2969FAFE297E3968FAFE397AD962F
:1006A0002FADAD97222309F490C0A6968CAD9DADD9
:1006B000AEADBFADA6975C016D01E12CF12C8701B9
:1006C0006E962FAD6E976F963FAD6F97A0964FAD1C
:1006D000A097A1965FADA197A7966FADA797A89693
:1006E0007FADA897A9968FADA997AA969FADAA9717
:1006F0006696AFAE66976796BFAE67976896CFAEC1
:1007000068976996DFAE69976A96EFAE6A976B96BF
:10071000FFAE6B976C960FAF6C976D961FAF6D9792
:10072000E12CF12C00E010E04CD5E22EF32E042F4A
:10073000152FB62FA72FF82FD92E203C344D41402E
:100740005105610571058105910529F020F021E031
:10075000EA962FAFEA97EA964FADEA97442309F459
:100760006AC02E2D3F2D402F512F6B2F7A2F8F2FA8
:100770009D2D243F314041055105610571058105DD
:10078000910509F008F45BC081E0AC96BFADAC9771
:10079000B827AC96BFAFAC976E963FAD6E976F968D
:1007A0002FAD6F97A0969FADA097A1968FADA19703
:1007B000A3963FAFA397A4962FAFA497A5969FAFFC
:1007C000A597A6968FAFA6973AC06E963FAD6E9747
:1007D0006F962FAD6F97A0969FADA097A1968FAD06
:1007E000A197A3963FAFA397A4962FAFA497A596E2
:1007F0009FAFA597A6968FAFA6978BE792E09F93A2
:100800008F931F9281E08F937CD28AE692E09F9330
:100810008F931F9282E08F9374D20FB6F894DEBF4D
:100820000FBECDBF512CEA961FAEEA97AC961FAE15
:10083000AC97212C04C051E0AC965FAFAC97AB965F
:100840008FADAB97882321F0211002C0512C312CA1
:10085000211007C09FEF591671F0A3E05A1216C07D
:100860000EC0B1E02B1212C0EFEF5E1651F025E082
:1008700052120CC00AC06894552451F807C0512C7C
:1008800005C06894552452F801C0512C772051F0CE
:10089000AD964FADAD97442329F0211003C022241B
:1008A0002394250C51E0251629F082E0281609F43E
:1008B00070C0DEC0E52DF0E0EE0FFF1FABE4B0E04E
:1008C000AC0FBD1FEA0FFB1F808191819F938F9317
:1008D0001F9281E08F9315D28CE592E09F938F93C6
:1008E0001F9283E08F930DD20FB6F894DEBF0FBE38
:1008F000CDBF51100CC080E992E09F938F931F925F
:1009000082E08F93FED10F900F900F900F9051E0E7
:1009100055120CC086E992E09F938F931F9282E05C
:100920008F93EFD10F900F900F900F9082E058129D
:100930000CC086E992E09F938F931F9282E08F9381
:10094000E0D10F900F900F900F9093E059120CC0D0
:1009500086E992E09F938F931F9282E08F93D1D18B
:100960000F900F900F900F90A4E05A120CC086E9E0
:1009700092E09F938F931F9282E08F93C2D10F904A
:100980000F900F900F90AB96BFADAB97B1116BC0AE
:100990006FC0E22DF0E07096EE0FFF1F41E050E0D7
:1009A0004C0F5D1FE40FF51F808191819F938F9302
:1009B0001F921F92A6D18CE592E09F938F931F9276
:1009C00081E08F939ED11F92EB965FADEB975F9383
:1009D0008CE992E09F938F931F9282E08F9391D145
:1009E00089E692E09F938F931F9283E08F9389D142
:1009F0000FB6F894DEBF0FBECDBFAE969FADAE97DB
:100A0000992369F0E996AFADE997A33040F0EB96F2
:100A1000BFADEB97B150EB96BFAFEB9711C0AF9660
:100A2000EFADAF97EE2361F0E9962FADE99728304F
:100A300038F4EB964FADEB974F5FEB964FAFEB97DC
:100A4000AB965FADAB97511111C012C00F2EFEE0F7
:100A50005F2EF02DE4961FAEE4970AC0512CE49669
:100A60001FAEE49705C0512C212C02C0512C212C23
:100A7000211015C0E32DF0E0EE0FFF1F81E090E0A4
:100A80008C0F9D1FE80FF91F808191819F938F9399
:100A90001F921F9236D10F900F900F900F90AC962F
:100AA000AFADAC978A2F90E007D0A296FFACA2978B
:100AB000082DC62C142D8ECB82B995B9089580913E
:100AC0000901089583E084BD8BE085BD81E08093BA
:100AD0006E0089EF87BD08952091070530910805C4
:100AE0004091090550910A0560910B0570910C0524
:100AF00080910D0590910E05089511BA10BA1092CB
:100B000008011092070180E480937C008FE08093BD
:100B10007E008FEF80937D0087E880937A001092AB
:100B20007B000895ECE7F0E09081907F9083282F80
:100B30002770922B9083EBE7F0E09081977F88708D
:100B4000892B8083EAE7F0E0808180648083809154
:100B50007A0086FDFCCF809178009091790008950D
:100B60002FEF33E0F901E81BF90BC901861B970B46
:100B7000241B350BF093A900E093A8009093AB00E1
:100B80008093AA003093AD002093AC0008958EEFBF
:100B90008093A0008BE18093A10083E08093A70065
:100BA0008FEF8093A60040E050E060E070E080E0CE
:100BB00090E0D6CF0895882321F084B3816084BB70
:100BC000089584B38E7F84BB0895882321F084B375
:100BD000826084BB089584B38D7F84BB08958111A6
:100BE00004C084B58F7D84BD089594B5906294BD92
:100BF00088BD0895EF92FF920F931F93CF93DF93D9
:100C00007C01EB0181E0D7DF00E010E006C080E06E
:100C1000DCDF81E0DADF0F5F1F4F05301105B8F32D
:100C200080E0C9DF80E0D1DF81E0CFDF83E4E81638
:100C3000F10419F480E0BFDF02C081E0BCDF80E096
:100C4000C4DF81E0C2DF80E0B6DF80E0BEDF81E0AC
:100C5000BCDF00E010E011C080E0B7DFC0FF03C0E0
:100C600081E0A9DF02C080E0A6DFD695C79580E0CD
:100C7000ACDF81E0AADF0F5F1F4F0430110560F386
:100C800080E099DF00E010E006C080E09EDF81E0B8
:100C90009CDF0F5F1F4F04301105B8F300E010E038
:100CA00011C080E092DFC0FF03C081E084DF02C09A
:100CB00080E081DFD695C79580E087DF81E085DF22
:100CC0000F5F1F4F0430110560F380E074DFC0E058
:100CD000D0E005C080E079DF81E077DF2196C43085
:100CE000D105C0F381E067DF87EC90E00197F1F771
:100CF00000C00000DF91CF911F910F91FF90EF9006
:100D000008951F93CF93DF93CDB7DEB765970FB6E6
:100D1000F894DEBF0FBECDBF9E01205E3F4F4E8DCB
:100D20005F8D65E170E0CE0101967FD26D8D8C8D77
:100D300090E2899F600D1124606870E083E490E088
:100D400059DF10E005C01F5F70E084E490E052DFDF
:100D5000E1E0F0E0EC0FFD1FE10FF11D608161119A
:100D6000F2CF65960FB6F894DEBF0FBECDBFDF9110
:100D7000CF911F91089561E070E083E490E03ADF45
:100D80008FE39FE10197F1F700C000008FE692E04A
:100D90009F938F931F921F92B4DF0F900F900F902D
:100DA0000F90089581E011DF80E005DF64E370E0DB
:100DB00083E490E01FDF69E070E083E490E01ADFF5
:100DC00060E370E083E490E015DF6CE070E083E4C2
:100DD00090E010DFD0DF67E070E083E490E00ADFAE
:100DE00080E0FDCE0895FF920F931F93CF93DF9382
:100DF000C82F85B785BF12B88FEF81B915B884B9F0
:100E000088B917B88BB91AB88EB91DB89EB19B7F37
:100E10009EB911BA10BA94E094BB93B3936093BB9C
:100E200093B3906293BB97EC9093020198E39093F5
:100E300001011092050180930401109208011092A3
:100E400007018CE380930B0110920A0178943ADE3B
:100E5000A9DF53DE9CDECC2309F4A3C08FEFBFDEF5
:100E600040E050E06FEF73E080E090E079DE8BEAE5
:100E700094E09F938F931F921F9243DF80EC94E046
:100E80009F938F931F9281E08F933BDF86E994E0DD
:100E90009F938F931F9282E08F9333DF85ED94E0D1
:100EA0009F938F931F9283E08F932BDF8DB79EB715
:100EB00040960FB6F8949EBF0FBE8DBFFF24F394EB
:100EC000C0E010E001E0D0E0002351F080E090E8C5
:100ED0000D2E02C0969587950A94E2F7EDDD09C0C4
:100EE00081E090E00D2E02C0880F991F0A94E2F76E
:100EF000E3DDDF5FD13128F081E0011180E0082FD0
:100F0000D0E0FF2011F0CE5F01C0C2508C2F67DE11
:100F1000CE3F09F4F12CC83711F4FF24F3941111DA
:100F200017C0CDDD837CA1F040E050E066E272E0C6
:100F30008FEF93E015DE8AEE94E09F938F931F92DC
:100F400083E08F93DEDE0F900F900F900F9011E0F3
:100F5000112319F0B4DD837C39F08FEF9CE7019702
:100F6000F1F700C00000B0CF06DF80E038DE80E09F
:100F700090E0A2DD40E050E060E070E080E090E0D2
:100F8000EFDD1092070510920805109209051092E6
:100F90000A0510920B0510920C0510920D05109287
:100FA0000E05DF91CF911F910F91FF900895CF9380
:100FB000DF93CDB7DEB728970FB6F894DEBF0FBE2C
:100FC000CDBF88E0E4E5F2E0DE01119601900D92DC
:100FD0008A95E1F7E5E0F1E080818F7B8083E09105
:100FE0000405F091050581E090E08C0F9D1FE80F4E
:100FF000F91F808190E0909303058093020580E0C3
:1010000026C0E7E3F0E0E81BF109EE0FFF1FE05F09
:10101000FA4F40815181209102053091030524232C
:101020003523232B31F0E5E0F1E09081906290834D
:1010300005C0E5E0F1E090819F7D9083E5E0F1E07F
:1010400090819061908390819F7E90838F5F8833A1
:10105000C0F2E5E0F1E08081877F80838081887F36
:101060008083908180910405892B808380818064B6
:10107000808380818860808380910405909105053C
:101080008730910530F4019690930505809304050F
:1010900007C0109205051092040581E080930605B3
:1010A00028960FB6F894DEBF0FBECDBFDF91CF916B
:1010B00008951F920F920FB60F9211240BB60F9244
:1010C0002F933F934F935F936F937F938F939F9350
:1010D000AF93BF93EF93FF932091070530910805DD
:1010E0004091090550910A0560910B0570910C051E
:1010F00080910D0590910E05A1E057D02093070532
:10110000309308054093090550930A0560930B0539
:1011100070930C0580930D0590930E0580910F053B
:10112000811145DFFF91EF91BF91AF919F918F9119
:101130007F916F915F914F913F912F910F900BBED7
:101140000F900FBE0F901F901895AA1BBB1B51E16B
:1011500007C0AA1FBB1FA617B70710F0A61BB70B27
:10116000881F991F5A95A9F780959095BC01CD01CC
:101170000895052E97FB16F400940FD057FD05D067
:1011800032D007FC02D046F408C050954095309507
:1011900021953F4F4F4F5F4F0895909580957095E3
:1011A00061957F4F8F4F9F4F08950024A7FD0094B6
:1011B0002A0F301D401D501D601D701D801D901D8B
:1011C00008952A193B094C095D096E097F09800BB6
:1011D000910B08952A153B054C055D056E057F05AD
:1011E000800791070895A1E21A2EAA1BBB1BFD01DF
:1011F0000DC0AA1FBB1FEE1FFF1FA217B307E407F6
:10120000F50720F0A21BB30BE40BF50B661F771F4D
:10121000881F991F1A9469F760957095809590952D
:101220009B01AC01BD01CF0108950F931F93CF9394
:10123000DF93CDB7DEB72E970FB6F894DEBF0FBEA3
:10124000CDBF8C01FA0186E08C831A83098377FF76
:1012500002C060E070E8CB0101979E838D83A901F5
:10126000BF01CE01019619D04D815E8157FD0AC0A4
:101270002F813885421753070CF49A01F801E20FC9
:10128000F31F10822E960FB6F894DEBF0FBECDBFAF
:10129000DF91CF911F910F9108952F923F924F921E
:1012A0005F926F927F928F929F92AF92BF92CF92F6
:1012B000DF92EF92FF920F931F93CF93DF93CDB7FF
:1012C000DEB72B970FB6F894DEBF0FBECDBF6C0113
:1012D0007B018A01FC0117821682838181FFBFC1D5
:1012E000CE0101963C01F6019381F70193FD8591B2
:1012F00093FF81917F01882309F4ADC1853239F4D0
:1013000093FD859193FF81917F01853221F4B60190
:1013100090E0D6D1E8CF912C212C312CFFE1F315B0
:10132000D8F08B3279F038F4803279F08332A1F43E
:10133000232D20611DC08D3261F0803369F4232D8F
:10134000216016C0832D8260382EE32DE4603E2E8E
:101350002AC0F32DF8601DC037FC2DC020ED280FEA
:101360002A3040F08E32B9F436FC75C1232D20644A
:10137000322E19C036FE06C08AE0989E200D112438
:10138000922E11C0EAE02E9E200D1124222EF32D64
:10139000F0623F2E08C08C3621F4832D8068382EF1
:1013A00002C0883641F4F70193FD859193FF819146
:1013B0007F018111B3CF982F9F7D9554933028F4EE
:1013C0000C5F1F4F9FE399830DC0833631F0833745
:1013D00071F0833509F055C020C0F8018081898300
:1013E0000E5F1F4F88248394912C530112C0280153
:1013F000F2E04F0E511CF801A080B18036FE03C010
:10140000692D70E002C06FEF7FEFC5014ED14C0136
:101410008201F32DFF773F2E15C0280122E0420EF6
:10142000511CF801A080B18036FE03C0692D70E028
:1014300002C06FEF7FEFC5012DD14C01F32DF06895
:101440003F2E820133FC19C0822D90E08816990648
:10145000A0F4B60180E290E033D12A94F5CFF501F3
:1014600037FC859137FE81915F01B60190E028D16C
:1014700021102A9421E0821A91088114910479F7AD
:10148000E1C0843611F0893639F5F80137FE07C01E
:1014900060817181828193810C5F1F4F08C06081E0
:1014A0007181072E000C880B990B0E5F1F4FF32DD7
:1014B000FF763F2E97FF09C09095809570956195B6
:1014C0007F4F8F4F9F4FF0683F2E2AE030E0A301FF
:1014D00033D1882E861844C0853731F4232D2F7ED2
:1014E000B22E2AE030E025C0932D997FB92E8F3699
:1014F000C1F018F4883579F0AEC0803719F088371C
:1015000021F0A9C0E92FE061BE2EB4FE0DC0FB2D75
:10151000F460BF2E09C034FE0AC0292F2660B22E07
:1015200006C028E030E005C020E130E002C020E144
:1015300032E0F801B7FE07C060817181828193813A
:101540000C5F1F4F06C06081718180E090E00E5FEC
:101550001F4FA301F1D0882E8618FB2DFF773F2E59
:1015600036FE0DC0232D2E7FA22E891458F434FE92
:101570000BC032FC09C0832D8E7EA82E05C0B82C6E
:10158000A32C03C0B82C01C0B92CA4FE0FC0FE01CF
:10159000E80DF11D8081803321F49A2D997EA92ECA
:1015A00009C0A2FE06C0B394B39404C08A2D867805
:1015B00009F0B394A3FC10C0A0FE06C0B21480F4DE
:1015C000280C922C9B180DC0B21458F4B60180E27E
:1015D00090E076D0B394F8CFB21418F42B1802C070
:1015E000982C212CA4FE0FC0B60180E390E068D0B7
:1015F000A2FE16C0A1FC03C088E790E002C088E507
:1016000090E0B6010CC08A2D867851F0A1FE02C090
:101610008BE201C080E2A7FC8DE2B60190E050D0E1
:10162000891430F4B60180E390E04AD09A94F8CF60
:101630008A94F301E80DF11D8081B60190E040D05D
:101640008110F6CF222009F44ECEB60180E290E060
:1016500037D02A94F7CFF6018681978102C08FEFA9
:101660009FEF2B960FB6F894DEBF0FBECDBFDF9174
:10167000CF911F910F91FF90EF90DF90CF90BF908F
:10168000AF909F908F907F906F905F904F903F9022
:101690002F900895FC010590615070400110D8F71B
:1016A000809590958E0F9F1F0895FC0161507040AA
:1016B00001900110D8F7809590958E0F9F1F089587
:1016C0000F931F93CF93DF93FB01238121FD03C071
:1016D0008FEF9FEF2CC022FF16C0468157812481D7
:1016E00035814217530744F4A081B1819D012F5FDA
:1016F0003F4F318320838C93268137812F5F3F4F6B
:101700003783268314C08B01EC01FB010084F18533
:10171000E02D1995892BE1F6D80116968D919C91B3
:101720001797019617969C938E931697CE01DF918B
:10173000CF911F910F910895FA01AA27283051F1F6
:10174000203181F1E8946F936E7F6E5F7F4F8F4FF2
:101750009F4FAF4FB1E03ED0B4E03CD0670F781F51
:10176000891F9A1FA11D680F791F8A1F911DA11D36
:101770006A0F711D811D911DA11D20D009F468946F
:101780003F912AE0269F11243019305D3193DEF617
:10179000CF010895462F4770405D4193B3E00FD0CD
:1017A000C9F7F6CF462F4F70405D4A3318F0495DB8
:1017B00031FD4052419302D0A9F7EACFB4E0A6959B
:1017C0009795879577956795BA95C9F700976105BD
:1017D000710508959B01AC010A2E06945795479513
:1017E00037952795BA95C9F7620F731F841F951F08
:0817F000A01D0895F894FFCF3D
:1017F800B402C902DE02F30206031B0330034503E9
:101808005A036F0384039903AE03C303D803ED039C
:10181800020413041E04C902DE02F30206031B03BA
:10182800300345035A036F0384039903AE03C303CC
:10183800D803ED0326043B04500465047A048104AC
:1018480088048F04010204081020408020202020F2
:101858002020202020202020202020202020202080
:101868000054656D703A2575B0200046726964674A
:101878006520436C6F7365642020202020202000A1
:10188800427265616400456D7074790020203C25C2
:1018980075B03E202020202020202020202020203D
:1018A800202020004B69746368656E20202020206A
:1018B80020202020202020200046726964676520AF
:1018C80020202020202020202020202020004F76AB
:1018D800656E20202020202020202020202020206D
:1018E80020200053696E6B202020202020202020FB
:1018F800202020202000436F66656D616368696E53
:1019080065202020202020202020004B6574746C46
:10191800652020202020202020202020202020009A
:101928004D6963726F776176652020202020202022
:1019380020202020004E75636C656172205265611D
:1019480063746F722020202020004C616D7020206D
:10195800202020202020202020202020202000526D
:101968006F626F742020202020202020202020203B
:10197800202020004772696C6C2020202020202025
:10198800202020202020202000536D6F6B657220BE
:1019980020202020202020202020202020004169F5
:1019A8007266727965722020202020202020202055
:1019B80020200044656570204672796572202020D9
:1019C8002020202020202000476172626167652066
:1019D80043616E20202020202020202000496E76A0
:1019E800656E746F7279202020202020202020200E
:1019F800200046726964676520496E76656E746F6B
:101A080072790054656D7065726174757200467202
:101A180065657A65720046726964676520496E7605
:101A2800656E746F7279202020200054656D706592
:101A380072617475726520202020202020202000EB
:101A4800467265657A65722020202020202020209B
:101A58002020202000536C6F74203120202020206B
:101A680020202020202020202000536C6F7420325A
:101A780000536C6F74203300536C6F742034005320
:101A88006C6F742035002D2D2D2D2D2D2D2D2D2DE8
:101A98002D2D2D2D2D2D2D2D2D2D002020202020DC
:101AA8002075432D426F6172642020202020200081
:101AB80041546D65676132353630206174203136A6
:101AC800204D487A00507265737320616E79206BDF
:101AD800657920746F2072756E00202072656C65C0
:101AE80061736520616C6C206B6579732020003A06
:021AF8000000EC
:00000001FF
