S01B00005072756566756E675F31372E30342E323032362E737265636C
S113000071C000008EC000008CC000008AC00000D7
S113001088C0000086C0000084C0000082C00000C8
S113002080C000007EC000007CC000007AC00000D8
S113003078C0000076C0000074C0000072C00000E8
S113004070C000006EC000006CC000006AC00000F8
S113005068C0000066C0000064C00000D6C4000090
S113006060C000005EC000005CC000005AC0000018
S113007058C0000056C0000054C0000052C0000028
S113008050C000004EC000004CC000004AC0000038
S113009048C0000046C0000044C0000042C0000048
S11300A040C000003EC000003CC000003AC0000058
S11300B038C0000036C0000034C0000032C0000068
S11300C030C000002EC000002CC000002AC0000078
S11300D028C0000026C0000024C0000022C0000088
S11300E020C0000011241FBECFEFD1E2DEBFCDBF80
S11300F000E00CBF12E0A0E0B2E0EAE9F0E100E0C9
S11301000BBF02C007900D92A437B107D9F722E0C4
S1130110A4E7B2E001C01D92A23FB207E1F702D00A
S1130120BAC76ECFCF93DF93CDB7DEB7A0970FB624
S1130130F894DEBF0FBECDBF80E001D31B821F86C3
S1130140188A198A1A8A1B8A1C8A1D8A1E8A1F8A7F
S1130150188E198E1A8E1B8E1C8E1D8E1E8E1F825B
S1130160188619861A861B861C861D861E8611E033
S11301701E83512C00E0612C712C812C912C10E0F9
S113018018A386B180FB222420F8312C8091090128
S113019083708F8F08270823902F917099831A8278
S11301A0027010E063D12B83432E4C835D83B62F02
S11301B0A72FF82FE92F88A1823009F459C028F419
S11301C0882359F08130F1F028C198A1933009F4C3
S11301D085C0943009F4B4C020C189819A8118166D
S11301E0190614F491E098A3101611060CF4EFC04C
S11301F06894552454F866246394712C8824839459
S1130200912C0BC11E81112361F08B818F83488651
S11302109C8199871D811A87BB87AC87FD87EE87F0
S11302201E822B81342D4C815D816B2F7A2F8F2F71
S11302309E2FAF80B884C984DA84EB84FC840D8556
S11302401E853BD4283833414105510561057105AC
S11302508105910521F018F018A211E01E831214F3
S113026013040CF4C0C0512C812C99249394D5C050
S11302708E81882361F09B819F8348861C81198726
S11302808D818A87BB87AC87FD87EE871E822B8191
S1130290342D4C815D816B2F7A2F8F2F9E2FAF8051
S11302A0B884C984DA84EB84FC840D851E8505D466
S11302B028383341410551056105710581059105D2
S11302C021F018F018A211E01E83121413040CF488
S11302D093C0512C612C772473949FC08E81882302
S11302E061F09B819F8B488E1C81198F8D818A8F31
S11302F0BB8FAC8FFD8FEE8F1E82121413041CF083
S113030018A291E09E832B81342D4C815D816B2F4B
S11303107A2F8F2F9E2FAF88B88CC98CDA8CEB8CF8
S1130320FC8C0D8D1E8DC9D32031374241055105FA
S1130330610571058105910511F008F066C06DC075
S11303401E811123A1F08B818F87488A9C81998B10
S11303501D811A8BBB8BAC8BFD8BEE8B1E826624AE
S113036063947724739488248394992493942B819D
S1130370342D4C815D816B2F7A2F8F2F9E2FAF846C
S1130380B888C988DA88EB88FC880D891E8995D3DA
S1130390243F3140410551056105710581059105F1
S11303A091F088F081E0982C9826782668268B8135
S11303B08F87488A9C81998B1D811A8BBB8BAC8B50
S11303C0FD8BEE8B892C121413043CF123C082E0C4
S11303D088A36894552454F866246394712C882463
S11303E08394912C1AC093E098A3E1E0EE83512CFE
S11303F0812C9924939411C013E018A381E08E8377
S1130400512C612C7724739408C094E098A3E1E004
S1130410EE8303C018A211E01E83882D90E0880F9C
S1130420991F462D50E0440F551F440F551F440F8C
S1130430551F272D30E0220F331F220F331F85292C
S11304408929842B282B22B90F8D9BCE82B995B98B
S1130450089580910901089583E084BD8BE085BDF2
S113046081E080936E0089EF87BD08952091790221
S113047030917A0240917B0250917C0260917D021E
S113048070917E0280917F0290918002089511BA4A
S113049010BA109208011092070180E480937C0046
S11304A08FE080937E008FEF80937D0087E88093B8
S11304B07A0010927B0008952FEF33E0F901E81BD6
S11304C0F90BC901861B970B241B350BF093A9006C
S11304D0E093A8009093AB008093AA003093AD0002
S11304E02093AC0008958EEF8093A0008BE180935D
S11304F0A10083E08093A7008FEF8093A60040E0E3
S113050050E060E070E080E090E0D6CF089588236A
S113051021F084B3816084BB089584B38E7F84BB4F
S11305200895882321F084B3826084BB089584B342
S11305308D7F84BB0895811104C084B58F7D84BDF3
S1130540089594B5906294BD88BD0895EF92FF928A
S11305500F931F93CF93DF937C01EB0181E0D7DFEF
S113056000E010E006C080E0DCDF81E0DADF0F5F4E
S11305701F4F05301105B8F380E0C9DF80E0D1DFFB
S113058081E0CFDF83E4E816F10419F480E0BFDFF3
S113059002C081E0BCDF80E0C4DF81E0C2DF80E034
S11305A0B6DF80E0BEDF81E0BCDF00E010E011C018
S11305B080E0B7DFC0FF03C081E0A9DF02C080E0B4
S11305C0A6DFD695C79580E0ACDF81E0AADF0F5F98
S11305D01F4F0430110560F380E099DF00E010E064
S11305E006C080E09EDF81E09CDF0F5F1F4F043078
S11305F01105B8F300E010E011C080E092DFC0FF05
S113060003C081E084DF02C080E081DFD695C79516
S113061080E087DF81E085DF0F5F1F4F0430110525
S113062060F380E074DFC0E0D0E005C080E079DFF3
S113063081E077DF2196C430D105C0F381E067DF24
S113064087EC90E00197F1F700C00000DF91CF91B3
S11306501F910F91FF90EF9008951F93CF93DF9315
S1130660CDB7DEB765970FB6F894DEBF0FBECDBF2A
S11306709E01205E3F4F4E8D5F8D65E170E0CE019F
S1130680019624D26D8D8C8D90E2899F600D11248A
S1130690606870E083E490E059DF10E005C01F5FFC
S11306A070E084E490E052DFE1E0F0E0EC0FFD1F45
S11306B0E10FF11D60816111F2CF65960FB6F894D8
S11306C0DEBF0FBECDBFDF91CF911F91089561E0D2
S11306D070E083E490E03ADF8FE39FE10197F1F764
S11306E000C0000080E392E09F938F931F921F92BB
S11306F0B4DF0F900F900F900F90089581E011DFF9
S113070080E005DF64E370E083E490E01FDF69E0EC
S113071070E083E490E01ADF60E370E083E490E04B
S113072015DF6CE070E083E490E010DFD0DF67E079
S113073070E083E490E00ADF80E0FDCE0895FF924C
S11307400F931F93CF93DF93C82F85B785BF12B83C
S11307508FEF81B915B884B988B917B88BB91AB8AD
S11307608EB91DB89EB19B7F9EB911BA10BA94E0A0
S113077094BB93B3936093BB93B3906293BB97EC96
S11307809093020198E390930101109205018093E4
S1130790040110920801109207018CE380930B016D
S11307A010920A01789458DEA9DF71DE9CDECC2316
S11307B009F4A3C08FEFBFDE40E050E06FEF73E0B9
S11307C080E090E079DE8DE192E09F938F931F9219
S11307D01F9243DF82E392E09F938F931F9281E005
S11307E08F933BDF88E092E09F938F931F9282E088
S11307F08F9333DF87E492E09F938F931F9283E07C
S11308008F932BDF8DB79EB740960FB6F8949EBF9B
S11308100FBE8DBFFF24F394C0E010E001E0D0E0F0
S1130820002351F080E090E80D2E02C09695879544
S11308300A94E2F70BDE09C081E090E00D2E02C0BD
S1130840880F991F0A94E2F701DEDF5FD13128F0A7
S113085081E0011180E0082FD0E0FF2011F0CE5F8D
S113086001C0C2508C2F67DECE3F09F4F12CC8378B
S113087011F4FF24F394111117C0EBDD837CA1F074
S113088040E050E066E272E08FEF93E015DE8CE525
S113089092E09F938F931F9283E08F93DEDE0F90FD
S11308A00F900F900F9011E0112319F0D2DD837C8B
S11308B039F08FEF9CE70197F1F700C00000B0CF4B
S11308C006DF80E038DE80E090E0C0DD40E050E00C
S11308D060E070E080E090E0EFDD10927902109229
S11308E07A0210927B0210927C0210927D02109286
S11308F07E0210927F0210928002DF91CF911F91AD
S11309000F91FF900895CF93DF93CDB7DEB728976B
S11309100FB6F894DEBF0FBECDBF88E0E0E0F2E092
S1130920DE01119601900D928A95E1F7E5E0F1E080
S113093080818F7B8083E0917602F091770281E061
S113094090E08C0F9D1FE80FF91F808190E0909339
S113095075028093740280E026C0E7E3F0E0E81BB0
S1130960F109EE0FFF1FEE57FD4F40815181209199
S113097074023091750224233523232B31F0E5E0F2
S1130980F1E090819062908305C0E5E0F1E0908110
S11309909F7D9083E5E0F1E0908190619083908168
S11309A09F7E90838F5F8833C0F2E5E0F1E0808121
S11309B0877F80838081887F808390818091760285
S11309C0892B808380818064808380818860808398
S11309D080917602909177028730910530F40196E8
S11309E0909377028093760207C010927702109258
S11309F0760281E08093780228960FB6F894DEBFE1
S1130A000FBECDBFDF91CF9108951F920F920FB605
S1130A100F9211240BB60F922F933F934F935F9332
S1130A206F937F938F939F93AF93BF93EF93FF93B2
S1130A302091790230917A0240917B0250917C029C
S1130A4060917D0270917E0280917F02909180027C
S1130A50A1E027D02093790230937A0240937B025D
S1130A6050937C0260937D0270937E0280937F0298
S1130A709093800280918102811145DFFF91EF9173
S1130A80BF91AF919F918F917F916F915F914F91A2
S1130A903F912F910F900BBE0F900FBE0F901F90A0
S1130AA018950024A7FD00942A0F301D401D501DE9
S1130AB0601D701D801D901D08952A193B094C0965
S1130AC05D096E097F09800B910B08950F931F93A5
S1130AD0CF93DF93CDB7DEB72E970FB6F894DEBF72
S1130AE00FBECDBF8C01FA0186E08C831A83098383
S1130AF077FF02C060E070E8CB0101979E838D838D
S1130B00A901BF01CE01019619D04D815E8157FD27
S1130B100AC02F813885421753070CF49A01F80153
S1130B20E20FF31F10822E960FB6F894DEBF0FBEAD
S1130B30CDBFDF91CF911F910F9108952F923F92D6
S1130B404F925F926F927F928F929F92AF92BF92D9
S1130B50CF92DF92EF92FF920F931F93CF93DF9385
S1130B60CDB7DEB72B970FB6F894DEBF0FBECDBF5F
S1130B706C017B018A01FC0117821682838181FF4B
S1130B80BFC1CE0101963C01F6019381F70193FDAB
S1130B90859193FF81917F01882309F4ADC185324A
S1130BA039F493FD859193FF81917F01853221F47E
S1130BB0B60190E0D6D1E8CF912C212C312CFFE165
S1130BC0F315D8F08B3279F038F4803279F083322F
S1130BD0A1F4232D20611DC08D3261F0803369F4AE
S1130BE0232D216016C0832D8260382EE32DE4600E
S1130BF03E2E2AC0F32DF8601DC037FC2DC020ED19
S1130C00280F2A3040F08E32B9F436FC75C1232DFA
S1130C102064322E19C036FE06C08AE0989E200D4C
S1130C201124922E11C0EAE02E9E200D1124222EB2
S1130C30F32DF0623F2E08C08C3621F4832D80689A
S1130C40382E02C0883641F4F70193FD859193FF55
S1130C5081917F018111B3CF982F9F7D955493305B
S1130C6028F40C5F1F4F9FE399830DC0833631F046
S1130C70833771F0833509F055C020C0F8018081B5
S1130C8089830E5F1F4F88248394912C530112C0D3
S1130C902801F2E04F0E511CF801A080B18036FE0D
S1130CA003C0692D70E002C06FEF7FEFC5014ED124
S1130CB04C018201F32DFF773F2E15C0280122E05D
S1130CC0420E511CF801A080B18036FE03C0692D8C
S1130CD070E002C06FEF7FEFC5012DD14C01F32D01
S1130CE0F0683F2E820133FC19C0822D90E08816F3
S1130CF09906A0F4B60180E290E033D12A94F5CFAE
S1130D00F50137FC859137FE81915F01B60190E0D2
S1130D1028D121102A9421E0821A91088114910487
S1130D2079F7E1C0843611F0893639F5F80137FED8
S1130D3007C060817181828193810C5F1F4F08C05D
S1130D4060817181072E000C880B990B0E5F1F4F79
S1130D50F32DFF763F2E97FF09C0909580957095EF
S1130D6061957F4F8F4F9F4FF0683F2E2AE030E010
S1130D70A30133D1882E861844C0853731F4232D3E
S1130D802F7EB22E2AE030E025C0932D997FB92E14
S1130D908F36C1F018F4883579F0AEC0803719F079
S1130DA0883721F0A9C0E92FE061BE2EB4FE0DC042
S1130DB0FB2DF460BF2E09C034FE0AC0292F266023
S1130DC0B22E06C028E030E005C020E130E002C0C9
S1130DD020E132E0F801B7FE07C0608171818281B1
S1130DE093810C5F1F4F06C06081718180E090E0A9
S1130DF00E5F1F4FA301F1D0882E8618FB2DFF77BD
S1130E003F2E36FE0DC0232D2E7FA22E891458F4BA
S1130E1034FE0BC032FC09C0832D8E7EA82E05C083
S1130E20B82CA32C03C0B82C01C0B92CA4FE0FC04D
S1130E30FE01E80DF11D8081803321F49A2D997E05
S1130E40A92E09C0A2FE06C0B394B39404C08A2D8F
S1130E50867809F0B394A3FC10C0A0FE06C0B214B7
S1130E6080F4280C922C9B180DC0B21458F4B601CF
S1130E7080E290E076D0B394F8CFB21418F42B1833
S1130E8002C0982C212CA4FE0FC0B60180E390E090
S1130E9068D0A2FE16C0A1FC03C088E790E002C09F
S1130EA088E590E0B6010CC08A2D867851F0A1FE49
S1130EB002C08BE201C080E2A7FC8DE2B60190E0A3
S1130EC050D0891430F4B60180E390E04AD09A946B
S1130ED0F8CF8A94F301E80DF11D8081B60190E00A
S1130EE040D08110F6CF222009F44ECEB60180E224
S1130EF090E037D02A94F7CFF6018681978102C01B
S1130F008FEF9FEF2B960FB6F894DEBF0FBECDBFC9
S1130F10DF91CF911F910F91FF90EF90DF90CF90D1
S1130F20BF90AF909F908F907F906F905F904F9005
S1130F303F902F900895FC0105906150704001107E
S1130F40D8F7809590958E0F9F1F0895FC016150EE
S1130F50704001900110D8F7809590958E0F9F1FD7
S1130F6008950F931F93CF93DF93FB01238121FDFA
S1130F7003C08FEF9FEF2CC022FF16C0468157811C
S1130F80248135814217530744F4A081B1819D0126
S1130F902F5F3F4F318320838C93268137812F5FCE
S1130FA03F4F3783268314C08B01EC01FB0100847F
S1130FB0F185E02D1995892BE1F6D80116968D91CE
S1130FC09C911797019617969C938E931697CE0132
S1130FD0DF91CF911F910F910895FA01AA2728302C
S1130FE051F1203181F1E8946F936E7F6E5F7F4FF2
S1130FF08F4F9F4FAF4FB1E03ED0B4E03CD0670F6E
S1131000781F891F9A1FA11D680F791F8A1F911DC0
S1131010A11D6A0F711D811D911DA11D20D009F410
S113102068943F912AE0269F11243019305D319352
S1131030DEF6CF010895462F4770405D4193B3E03B
S11310400FD0C9F7F6CF462F4F70405D4A3318F0E2
S1131050495D31FD4052419302D0A9F7EACFB4E093
S1131060A6959795879577956795BA95C9F700974B
S11310706105710508959B01AC010A2E06945795EC
S1131080479537952795BA95C9F7620F731F841F43
S10D1090951FA01D0895F894FFCFEA
S113109A01020408102040802D2D2D2D2D2D2D2DDB
S11310AA2D2D2D2D2D2D2D2D2D2D2D2D00202020B6
S11310BA20202075432D426F617264202020202055
S11310CA200041546D6567613235363020617420E1
S11310DA3136204D487A00507265737320616E79F7
S11310EA206B657920746F2072756E0020207265FA
S11310FA6C6561736520616C6C206B657973202063
S107110A003A0000A3
S9030000FC
