:1000000071C000008FC000008DC000008BC00000D8
:1000100089C0000087C0000085C0000083C00000C8
:1000200081C000007FC000007DC000007BC00000D8
:1000300079C0000077C0000075C0000073C00000E8
:1000400071C000006FC000006DC000006BC00000F8
:1000500069C0000067C0000065C0000043C6000022
:1000600061C000005FC000005DC000005BC0000018
:1000700059C0000057C0000055C0000053C0000028
:1000800051C000004FC000004DC000004BC0000038
:1000900049C0000047C0000045C0000043C0000048
:1000A00041C000003FC000003DC000003BC0000058
:1000B00039C0000037C0000035C0000033C0000068
:1000C00031C000002FC000002DC000002BC0000078
:1000D00029C0000027C0000025C0000023C0000088
:1000E00021C0000011241FBECFEFD1E2DEBFCDBF83
:1000F00000E00CBF12E0A0E0B2E0E0EDF4E100E0CF
:100100000BBF02C007900D92A63AB107D9F723E0C2
:10011000A6EAB2E001C01D92A432B207E1F703D013
:100120000C94660A6DCFCF93DF93CDB7DEB7E4971B
:100130000FB6F894DEBF0FBECDBF80E06DD41D8634
:1001400081E08AA71E86812C912C98EB9AA3ABE0C4
:10015000ABA31CA21DA21EA21FA218A619A61A8E2E
:100160001B8E1C8E1D8E1E8E1F8E18A219A21BA602
:100170001CA61DA61EA61FA618AA19AA1AAAE0E068
:100180009C86282C26B130900901022F007810E0BF
:100190002F70822F90E0A0E0B0E09C01AD012F5FB6
:1001A0003F4F4F4F5F4FA8E9BAE30AD62B013C01FE
:1001B000E325E3218E2F8270E82EF12CE170E88B8D
:1001C000198AC0D1E22FF32FB42F5BAB6CAB7987C8
:1001D0008A879B87101611061CF481E08F8704C064
:1001E0001D86212C1C861F861E141F04D4F4101695
:1001F0001106BCF48C84811014C0EBA7FCA7BDA72A
:100200009BA89EA68CA88FA6998498AA8A8489AA5E
:100210009B849AAA81E08D871AA62224239491E0D8
:100220009C872E2F3F2F4B2F5BA96CA979858A8540
:100230009B85ABA4BCA4CDA4DEA4EFA4F8A809A917
:100240001AA932D62A8B3B8B4C8B5D8B6E8B7F8BA6
:10025000888F998F53014201AB82BC82A42CB92CA8
:10026000CB80DC80E12CF12C00E010E026D630F0D1
:100270008AA4882031F020E030E005C020E030E0A2
:1002800002C021E030E088889988181419042CF401
:10029000211006C080E090E005C080E090E002C040
:1002A00081E090E0822B932B892B01F1EAA3FBA341
:1002B000BCA39BA89DA28CA88EA299849FA28A848D
:1002C00088A69B8499A6EA8FFB8FBC8F8BA88D8E06
:1002D0009CA89E8E89848F8E9A8498A28B8489A2F2
:1002E00081E08AA791E09E87212C1C862E2F3F2F2C
:1002F0004B2F5BA96CA979858A859B85AA8CBB8CC1
:10030000CC8CDD8CEE8CFF8C08A119A1CDD5255F9E
:100310003140410951096109710981099109A0E33D
:10032000D5D509F008F41E862E2F3F2F4B2F5BA941
:100330006CA979858A859B85AAA0BBA0CCA0DDA0ED
:10034000EEA0FFA008A519A5AFD521523F4B424012
:1003500051096109710981099109A0E3B7D509F033
:1003600008F41D868F84682D70E0FB01F695FE2F42
:10037000EE27F795E7959C84692D70E0002476952B
:1003800067950794769567950794762F602D422D93
:1003900050E0440F551F42955295507F5427407F9F
:1003A00054278E84282D30E022953295307F3227D5
:1003B000207F32279D84892D90E0880F991F880F18
:1003C000991F880F991F6E2B462B242B822B82B9E5
:1003D00088E092E09F938F931F92DD24D394DF9265
:1003E000A8D1C301B20128EE33E040E050E0C6D40A
:1003F00029013A01812C912C540129835A826B8264
:100400007C828D829E82AF82B886A12C0F2EF3E073
:10041000CF2EF02DE22EF52C062D172D20E030E00A
:1004200040E050E063E081E0BED18BE092E09F933A
:100430008F9386E08F93DF927CD11F925F845F92CF
:100440008DE092E09F938F931F921F9272D11F9223
:100450002F9286E192E09F938F931F9282E08F9379
:1004600068D11F926C846F928CE192E09F938F937E
:100470001F920F2EF3E07F2EF02D7F925AD11F9204
:100480008E848F9285E292E09F938F930F2EF9E0F6
:100490009F2EF02D9F921F924CD10FB6F894DEBF85
:1004A0000FBECDBF8FEFB3D08FE292E09F938F93BB
:1004B0009F92DF923ED10F2EF8EEAF2EF02D0F2E31
:1004C000F3E0BF2EF02DC12CD12CE12CF12C00E05B
:1004D00010E02A893B894C895D896E897F89888DE6
:1004E000998D7AD4A12C6894CC24C1F8E22EF32EF5
:1004F000042F152F262F372F482F592F6FE081E01B
:1005000052D11F924D844F9285E392E09F938F9337
:100510009F927F920ED1E32D0FB6F894DEBF0FBEEF
:10052000CDBF30CE82B995B9089580910901089563
:1005300083E084BD8BE085BD81E080936E0089EF10
:1005400087BD08952091AB023091AC024091AD027D
:100550005091AE026091AF027091B0028091B102F1
:100560009091B202089511BA10BA10920801109237
:10057000070180E480937C008FE080937E008FEF02
:1005800080937D0087E880937A0010927B00089525
:100590002FEF33E0F901E81BF90BC901861B970B1C
:1005A000241B350BF093A900E093A8009093AB00B7
:1005B0008093AA003093AD002093AC0008958EEF95
:1005C0008093A0008BE18093A10083E08093A7003B
:1005D0008FEF8093A60040E050E060E070E080E0A4
:1005E00090E0D6CF0895882321F084B3816084BB46
:1005F000089584B38E7F84BB0895882321F084B34B
:10060000826084BB089584B38D7F84BB089581117B
:1006100004C084B58F7D84BD089594B5906294BD67
:1006200088BD0895EF92FF920F931F93CF93DF93AE
:100630007C01EB0181E0D7DF00E010E006C080E044
:10064000DCDF81E0DADF0F5F1F4F05301105B8F303
:1006500080E0C9DF80E0D1DF81E0CFDF83E4E8160E
:10066000F10419F480E0BFDF02C081E0BCDF80E06C
:10067000C4DF81E0C2DF80E0B6DF80E0BEDF81E082
:10068000BCDF00E010E011C080E0B7DFC0FF03C0B6
:1006900081E0A9DF02C080E0A6DFD695C79580E0A3
:1006A000ACDF81E0AADF0F5F1F4F0430110560F35C
:1006B00080E099DF00E010E006C080E09EDF81E08E
:1006C0009CDF0F5F1F4F04301105B8F300E010E00E
:1006D00011C080E092DFC0FF03C081E084DF02C070
:1006E00080E081DFD695C79580E087DF81E085DFF8
:1006F0000F5F1F4F0430110560F380E074DFC0E02E
:10070000D0E005C080E079DF81E077DF2196C4305A
:10071000D105C0F381E067DF87EC90E00197F1F746
:1007200000C00000DF91CF911F910F91FF90EF90DB
:1007300008951F93CF93DF93CDB7DEB765970FB6BC
:10074000F894DEBF0FBECDBF9E01205E3F4F4E8DA1
:100750005F8D65E170E0CE010196D3D36D8D8C8DF8
:1007600090E2899F600D1124606870E083E490E05E
:1007700059DF10E005C01F5F70E084E490E052DFB5
:10078000E1E0F0E0EC0FFD1FE10FF11D6081611170
:10079000F2CF65960FB6F894DEBF0FBECDBFDF91E6
:1007A000CF911F9108952F923F924F925F926F9237
:1007B0007F928F929F92AF92BF92CF92DF92EF92F1
:1007C000FF920F931F93CF93DF93CDB7DEB7E497DC
:1007D0000FB6F894DEBF0FBECDBF88AB69ABEBA6FA
:1007E000FCA6502E412E2DA73AAB342E252E7C2C64
:1007F000AEA62A2D2C0D2FA7253170F08DE392E0A7
:100800009F938F9389A98F9328A92F9392DF0F909D
:100810000F900F900F90AFC08EA5811102C01CAA3F
:1008200002C021E02CAB612C7BAA762C6AA833C0D5
:1008300083E190E04C01871891080F2EFAE0AF2E6B
:10084000F02DB12CC12CD12CE12CF12C00E010E0CA
:100850002BA53CA5452D542D6DA5762D832D922DD0
:10086000B9D2E1E0F0E0EC0FFD1FE80DF91D205DCD
:1008700020832BA53CA5452D542D6DA5762D832DCC
:10088000922DAAD22BA73CA7542E452E6DA7672EDA
:10089000382E292E739483E1871550F67BA894E1B6
:1008A0002FA5921B80E020E011C0E1E0F0E0EC0F0A
:1008B000FD1FE90FF11D3081E5E1F0E0EC0FFD1FB8
:1008C000E80FF11D30838F5F9F5F2F5F271568F35F
:1008D0002CA9222349F0E5E1F0E0EC0FFD1FE80F21
:1008E000F11D2EE220838F5F20E04EA511C0E1E0D4
:1008F000F0E0EC0FFD1FE90FF11D3081E5E1F0E0C4
:10090000EC0FFD1FE80FF11D30838F5F9F5F2F5F9E
:10091000241768F3E5E1F0E0EC0FFD1FE80FF11D8F
:10092000108240E009C04F5FE5E1F0E0EC0FFD1FF1
:10093000E80FF91F20E22083842F90E0E5E1F0E04A
:10094000EC0FFD1FE80FF91F2081203339F4272D0C
:1009500030E021503109821793072CF3CE014596E0
:100960009F938F9389A98F9328A92F93E2DE0F90ED
:100970000F900F900F90E4960FB6F894DEBF0FBE65
:10098000CDBFDF91CF911F910F91FF90EF90DF903E
:10099000CF90BF90AF909F908F907F906F905F901F
:1009A0004F903F902F90089561E070E083E490E0D5
:1009B00039DE8FE39FE10197F1F700C0000085E683
:1009C00092E09F938F931F921F92B3DE0F900F9030
:1009D0000F900F90089581E010DE80E004DE64E364
:1009E00070E083E490E01EDE69E070E083E490E074
:1009F00019DE60E370E083E490E014DE6CE070E008
:100A000083E490E00FDED0DF67E070E083E490E005
:100A100009DE80E0FCCD0895FF920F931F93CF93E2
:100A2000DF93C82F85B785BF12B88FEF81B915B88E
:100A300084B988B917B88BB91AB88EB91DB89EB1E8
:100A40009B7F9EB911BA10BA94E094BB93B39360A4
:100A500093BB93B3906293BB97EC9093020198E39E
:100A600090930101109205018093040110920801F6
:100A7000109207018CE380930B0110920A01789485
:100A800057DDA9DF70DD9BDDCC2309F4A3C08FEF18
:100A9000BEDD40E050E06FEF73E080E090E078DD95
:100AA00082E592E09F938F931F921F9242DE87E62A
:100AB00092E09F938F931F9281E08F933ADE8DE3B4
:100AC00092E09F938F931F9282E08F9332DE8CE7A8
:100AD00092E09F938F931F9283E08F932ADE8DB7CE
:100AE0009EB740960FB6F8949EBF0FBE8DBFFF24F1
:100AF000F394C0E010E001E0D0E0002351F080E08A
:100B000090E80D2E02C0969587950A94E2F70ADDCB
:100B100009C081E090E00D2E02C0880F991F0A9451
:100B2000E2F700DDDF5FD13128F081E0011180E0E4
:100B3000082FD0E0FF2011F0CE5F01C0C2508C2FF3
:100B400066DDCE3F09F4F12CC83711F4FF24F3948D
:100B5000111117C0EADC837CA1F040E050E066E2AE
:100B600072E08FEF93E014DD81E992E09F938F9321
:100B70001F9283E08F93DDDD0F900F900F900F9009
:100B800011E0112319F0D1DC837C39F08FEF9CE761
:100B90000197F1F700C00000B0CF06DF80E037DD3D
:100BA00080E090E0BFDC40E050E060E070E080E09A
:100BB00090E0EEDC1092AB021092AC021092AD020B
:100BC0001092AE021092AF021092B0021092B102D7
:100BD0001092B202DF91CF911F910F91FF90089573
:100BE000CF93DF93CDB7DEB728970FB6F894DEBF6B
:100BF0000FBECDBF88E0E0E0F2E0DE01119601908B
:100C00000D928A95E1F7E5E0F1E080818F7B8083AA
:100C1000E091A802F091A90281E090E08C0F9D1F65
:100C2000E80FF91F808190E09093A7028093A602BD
:100C300080E026C0E7E3F0E0E81BF109EE0FFF1FBC
:100C4000EC54FD4F408151812091A6023091A702C2
:100C500024233523232B31F0E5E0F1E090819062ED
:100C6000908305C0E5E0F1E090819F7D9083E5E011
:100C7000F1E090819061908390819F7E90838F5F5F
:100C80008833C0F2E5E0F1E08081877F8083808156
:100C9000887F808390818091A802892B80838081C6
:100CA000806480838081886080838091A802909195
:100CB000A9028730910530F401969093A9028093A0
:100CC000A80207C01092A9021092A80281E08093A6
:100CD000AA0228960FB6F894DEBF0FBECDBFDF91F3
:100CE000CF9108951F920F920FB60F9211240BB659
:100CF0000F922F933F934F935F936F937F938F93B5
:100D00009F93AF93BF93EF93FF932091AB023091EA
:100D1000AC024091AD025091AE026091AF02709171
:100D2000B0028091B1029091B202A1E0B1D02093C3
:100D3000AB023093AC024093AD025093AE0260938D
:100D4000AF027093B0028093B1029093B20280918F
:100D5000B302811145DFFF91EF91BF91AF919F9158
:100D60008F917F916F915F914F913F912F910F9054
:100D70000BBE0F900FBE0F901F901895A1E21A2E78
:100D8000AA1BBB1BFD010DC0AA1FBB1FEE1FFF1F2F
:100D9000A217B307E407F50720F0A21BB30BE40B7F
:100DA000F50B661F771F881F991F1A9469F76095C6
:100DB0007095809590959B01AC01BD01CF01089580
:100DC00091D0A59F900DB49F900DA49F800D911D73
:100DD00011240895689401C0E8948F929F92CF9354
:100DE000DF9305D0DF91CF919F908F900895882455
:100DF0009924F401E401B0E49F93AA279A158B0487
:100E00009C04ED05FE05CF05D007A10798F4AD2F92
:100E1000DC2FCF2FFE2FE92D982C892E982F872F8E
:100E2000762F652F542F432F322F2227B85031F7BA
:100E3000BF9127C01B2EBF91BB27220F331F441F1A
:100E4000551F661F771F881F991F881C991CEE1F4E
:100E5000FF1FCC1FDD1FAA1FBB1F8A149B04EC05BC
:100E6000FD05CE05DF05A007B10748F08A189B08ED
:100E7000EC09FD09CE09DF09A00BB10B21601A9422
:100E8000E1F62EF49401AF01BE01CD01000C0895EE
:100E90000024A7FD00942A0F301D401D501D601D29
:100EA000701D801D901D08952A193B094C095D098C
:100EB0006E097F09800B910B08952A153B054C059F
:100EC0005D056E057F058007910708950024A7FD45
:100ED00000942A173005400550056005700580050F
:100EE00090050895A29FB001B39FC001A39F700D0C
:100EF000811D1124911DB29F700D811D1124911D22
:100F000008950F931F93CF93DF93CDB7DEB72E973E
:100F10000FB6F894DEBF0FBECDBF8C01FA0186E09C
:100F20008C831A83098377FF02C060E070E8CB01ED
:100F300001979E838D83A901BF01CE01019619D02F
:100F40004D815E8157FD0AC02F81388542175307B6
:100F50000CF49A01F801E20FF31F10822E960FB6DF
:100F6000F894DEBF0FBECDBFDF91CF911F910F91DF
:100F700008952F923F924F925F926F927F928F923D
:100F80009F92AF92BF92CF92DF92EF92FF920F9318
:100F90001F93CF93DF93CDB7DEB72B970FB6F8949F
:100FA000DEBF0FBECDBF6C017B018A01FC01178241
:100FB0001682838181FFBFC1CE0101963C01F601FB
:100FC0009381F70193FD859193FF81917F018823A0
:100FD00009F4ADC1853239F493FD859193FF819178
:100FE0007F01853221F4B60190E0D6D1E8CF912C73
:100FF000212C312CFFE1F315D8F08B3279F038F445
:10100000803279F08332A1F4232D20611DC08D320E
:1010100061F0803369F4232D216016C0832D826036
:10102000382EE32DE4603E2E2AC0F32DF8601DC05B
:1010300037FC2DC020ED280F2A3040F08E32B9F455
:1010400036FC75C1232D2064322E19C036FE06C031
:101050008AE0989E200D1124922E11C0EAE02E9E67
:10106000200D1124222EF32DF0623F2E08C08C3665
:1010700021F4832D8068382E02C0883641F4F701B0
:1010800093FD859193FF81917F018111B3CF982FBB
:101090009F7D9554933028F40C5F1F4F9FE39983F5
:1010A0000DC0833631F0833771F0833509F055C0B8
:1010B00020C0F801808189830E5F1F4F88248394AC
:1010C000912C530112C02801F2E04F0E511CF8017F
:1010D000A080B18036FE03C0692D70E002C06FEFC2
:1010E0007FEFC5014ED14C018201F32DFF773F2EDA
:1010F00015C0280122E0420E511CF801A080B180E9
:1011000036FE03C0692D70E002C06FEF7FEFC501AE
:101110002DD14C01F32DF0683F2E820133FC19C014
:10112000822D90E088169906A0F4B60180E290E046
:1011300033D12A94F5CFF50137FC859137FE8191A3
:101140005F01B60190E028D121102A9421E0821A93
:1011500091088114910479F7E1C0843611F0893641
:1011600039F5F80137FE07C0608171818281938172
:101170000C5F1F4F08C060817181072E000C880B27
:10118000990B0E5F1F4FF32DFF763F2E97FF09C07F
:1011900090958095709561957F4F8F4F9F4FF06828
:1011A0003F2E2AE030E0A30133D1882E861844C0B8
:1011B000853731F4232D2F7EB22E2AE030E025C072
:1011C000932D997FB92E8F36C1F018F4883579F0B8
:1011D000AEC0803719F0883721F0A9C0E92FE0614F
:1011E000BE2EB4FE0DC0FB2DF460BF2E09C034FE30
:1011F0000AC0292F2660B22E06C028E030E005C0C4
:1012000020E130E002C020E132E0F801B7FE07C083
:1012100060817181828193810C5F1F4F06C0608164
:10122000718180E090E00E5F1F4FA301F1D0882E06
:101230008618FB2DFF773F2E36FE0DC0232D2E7F07
:10124000A22E891458F434FE0BC032FC09C0832D41
:101250008E7EA82E05C0B82CA32C03C0B82C01C0CC
:10126000B92CA4FE0FC0FE01E80DF11D8081803372
:1012700021F49A2D997EA92E09C0A2FE06C0B3942E
:10128000B39404C08A2D867809F0B394A3FC10C0EF
:10129000A0FE06C0B21480F4280C922C9B180DC03E
:1012A000B21458F4B60180E290E076D0B394F8CF4F
:1012B000B21418F42B1802C0982C212CA4FE0FC0D5
:1012C000B60180E390E068D0A2FE16C0A1FC03C086
:1012D00088E790E002C088E590E0B6010CC08A2D56
:1012E000867851F0A1FE02C08BE201C080E2A7FC2B
:1012F0008DE2B60190E050D0891430F4B60180E35D
:1013000090E04AD09A94F8CF8A94F301E80DF11D49
:101310008081B60190E040D08110F6CF222009F400
:101320004ECEB60180E290E037D02A94F7CFF60196
:101330008681978102C08FEF9FEF2B960FB6F894AE
:10134000DEBF0FBECDBFDF91CF911F910F91FF90F8
:10135000EF90DF90CF90BF90AF909F908F907F9055
:101360006F905F904F903F902F900895FC010590F3
:10137000615070400110D8F7809590958E0F9F1F97
:101380000895FC016150704001900110D8F78095DC
:1013900090958E0F9F1F08950F931F93CF93DF9308
:1013A000FB01238121FD03C08FEF9FEF2CC022FFA3
:1013B00016C046815781248135814217530744F472
:1013C000A081B1819D012F5F3F4F318320838C939A
:1013D000268137812F5F3F4F3783268314C08B01CF
:1013E000EC01FB010084F185E02D1995892BE1F6D4
:1013F000D80116968D919C911797019617969C93FC
:101400008E931697CE01DF91CF911F910F91089582
:10141000FA01AA27283051F1203181F1E8946F9325
:101420006E7F6E5F7F4F8F4F9F4FAF4FB1E03ED0CB
:10143000B4E03CD0670F781F891F9A1FA11D680F69
:10144000791F8A1F911DA11D6A0F711D811D911D9C
:10145000A11D20D009F468943F912AE0269F112411
:101460003019305D3193DEF6CF010895462F477075
:10147000405D4193B3E00FD0C9F7F6CF462F4F70D0
:10148000405D4A3318F0495D31FD4052419302D02E
:10149000A9F7EACFB4E0A6959795879577956795D4
:1014A000BA95C9F700976105710508959B01AC01D4
:1014B0000A2E06945795479537952795BA95C9F7FB
:1014C000620F731F841F951FA01D0895F894FFCF0E
:1014D0000102040810204080743A007300506F77B6
:1014E000776120257500543A2025750048656265AE
:1014F0006C202575004B6C6170706520257500644B
:10150000656C74610068656174202575002D2D2D52
:101510002D2D2D2D2D2D2D2D2D2D2D2D2D2D2D2DFB
:101520002D0020202020202075432D426F61726401
:101530002020202020200041546D6567613235361F
:1015400030206174203136204D487A005072657326
:101550007320616E79206B657920746F2072756ECF
:1015600000202072656C6561736520616C6C206B76
:06157000657973202000E4
:00000001FF
